{
  "abi": [
    {
      "inputs": [],
      "stateMutability": "nonpayable",
      "type": "constructor"
    },
    {
      "inputs": [
        {
          "internalType": "address",
          "name": "",
          "type": "address"
        }
      ],
      "name": "Donors",
      "outputs": [
        {
          "internalType": "address",
          "name": "donorid",
          "type": "address"
        },
        {
          "internalType": "address",
          "name": "hospitalid",
          "type": "address"
        },
        {
          "internalType": "string",
          "name": "organ",
          "type": "string"
        },
        {
          "internalType": "string",
          "name": "bloodgroup",
          "type": "string"
        },
        {
          "internalType": "bool",
          "name": "matchfound",
          "type": "bool"
        },
        {
          "internalType": "bool",
          "name": "exist",
          "type": "bool"
        },
        {
          "internalType": "bool",
          "name": "added",
          "type": "bool"
        }
      ],
      "stateMutability": "view",
      "type": "function"
    },
    {
      "inputs": [
        {
          "internalType": "address",
          "name": "",
          "type": "address"
        }
      ],
      "name": "Recipients",
      "outputs": [
        {
          "internalType": "address",
          "name": "patientid",
          "type": "address"
        },
        {
          "internalType": "address",
          "name": "hospitalid",
          "type": "address"
        },
        {
          "internalType": "string",
          "name": "organ",
          "type": "string"
        },
        {
          "internalType": "string",
          "name": "bloodgroup",
          "type": "string"
        },
        {
          "internalType": "bool",
          "name": "matchfound",
          "type": "bool"
        },
        {
          "internalType": "bool",
          "name": "exist",
          "type": "bool"
        },
        {
          "internalType": "bool",
          "name": "added",
          "type": "bool"
        }
      ],
      "stateMutability": "view",
      "type": "function"
    },
    {
      "inputs": [
        {
          "internalType": "address",
          "name": "",
          "type": "address"
        }
      ],
      "name": "Transplants",
      "outputs": [
        {
          "internalType": "address",
          "name": "recipient",
          "type": "address"
        },
        {
          "internalType": "address",
          "name": "donor",
          "type": "address"
        },
        {
          "internalType": "address",
          "name": "HospitalId",
          "type": "address"
        },
        {
          "internalType": "bool",
          "name": "exist",
          "type": "bool"
        }
      ],
      "stateMutability": "view",
      "type": "function"
    },
    {
      "inputs": [
        {
          "internalType": "address",
          "name": "donori",
          "type": "address"
        }
      ],
      "name": "addDonar",
      "outputs": [],
      "stateMutability": "payable",
      "type": "function"
    },
    {
      "inputs": [
        {
          "internalType": "address",
          "name": "hospitalId",
          "type": "address"
        }
      ],
      "name": "addHospital",
      "outputs": [],
      "stateMutability": "payable",
      "type": "function"
    },
    {
      "inputs": [
        {
          "internalType": "address",
          "name": "patientid",
          "type": "address"
        }
      ],
      "name": "addrecipient",
      "outputs": [],
      "stateMutability": "payable",
      "type": "function"
    },
    {
      "inputs": [],
      "name": "admin",
      "outputs": [
        {
          "internalType": "address",
          "name": "",
          "type": "address"
        }
      ],
      "stateMutability": "view",
      "type": "function"
    },
    {
      "inputs": [
        {
          "internalType": "address",
          "name": "hospitalid",
          "type": "address"
        },
        {
          "internalType": "string",
          "name": "organ",
          "type": "string"
        },
        {
          "internalType": "string",
          "name": "bloodgroup",
          "type": "string"
        }
      ],
      "name": "creatRequestDonar",
      "outputs": [],
      "stateMutability": "nonpayable",
      "type": "function"
    },
    {
      "inputs": [
        {
          "internalType": "string",
          "name": "name",
          "type": "string"
        }
      ],
      "name": "creatRequestHospital",
      "outputs": [],
      "stateMutability": "nonpayable",
      "type": "function"
    },
    {
      "inputs": [
        {
          "internalType": "address",
          "name": "hospitalid",
          "type": "address"
        },
        {
          "internalType": "string",
          "name": "organ",
          "type": "string"
        },
        {
          "internalType": "string",
          "name": "bloodgroup",
          "type": "string"
        }
      ],
      "name": "creatRequestRecipient",
      "outputs": [],
      "stateMutability": "nonpayable",
      "type": "function"
    },
    {
      "inputs": [
        {
          "internalType": "uint256",
          "name": "",
          "type": "uint256"
        }
      ],
      "name": "donorarr",
      "outputs": [
        {
          "internalType": "address",
          "name": "",
          "type": "address"
        }
      ],
      "stateMutability": "view",
      "type": "function"
    },
    {
      "inputs": [],
      "name": "getDonorcount",
      "outputs": [
        {
          "internalType": "uint256",
          "name": "",
          "type": "uint256"
        }
      ],
      "stateMutability": "view",
      "type": "function"
    },
    {
      "inputs": [],
      "name": "gethospitalcount",
      "outputs": [
        {
          "internalType": "uint256",
          "name": "",
          "type": "uint256"
        }
      ],
      "stateMutability": "view",
      "type": "function"
    },
    {
      "inputs": [],
      "name": "getrecipientcount",
      "outputs": [
        {
          "internalType": "uint256",
          "name": "",
          "type": "uint256"
        }
      ],
      "stateMutability": "view",
      "type": "function"
    },
    {
      "inputs": [],
      "name": "gettransplantlength",
      "outputs": [
        {
          "internalType": "uint256",
          "name": "",
          "type": "uint256"
        }
      ],
      "stateMutability": "view",
      "type": "function"
    },
    {
      "inputs": [
        {
          "internalType": "address",
          "name": "",
          "type": "address"
        }
      ],
      "name": "hospital",
      "outputs": [
        {
          "internalType": "address",
          "name": "HospitalId",
          "type": "address"
        },
        {
          "internalType": "string",
          "name": "name",
          "type": "string"
        },
        {
          "internalType": "bool",
          "name": "added",
          "type": "bool"
        }
      ],
      "stateMutability": "view",
      "type": "function"
    },
    {
      "inputs": [
        {
          "internalType": "uint256",
          "name": "",
          "type": "uint256"
        }
      ],
      "name": "hospitalarr",
      "outputs": [
        {
          "internalType": "address",
          "name": "",
          "type": "address"
        }
      ],
      "stateMutability": "view",
      "type": "function"
    },
    {
      "inputs": [
        {
          "internalType": "uint256",
          "name": "",
          "type": "uint256"
        }
      ],
      "name": "recipientarr",
      "outputs": [
        {
          "internalType": "address",
          "name": "",
          "type": "address"
        }
      ],
      "stateMutability": "view",
      "type": "function"
    },
    {
      "inputs": [
        {
          "internalType": "uint256",
          "name": "",
          "type": "uint256"
        }
      ],
      "name": "transplantarr",
      "outputs": [
        {
          "internalType": "address",
          "name": "",
          "type": "address"
        }
      ],
      "stateMutability": "view",
      "type": "function"
    },
    {
      "inputs": [
        {
          "internalType": "address",
          "name": "recipientad",
          "type": "address"
        }
      ],
      "name": "transplantmatch",
      "outputs": [
        {
          "internalType": "address",
          "name": "a",
          "type": "address"
        }
      ],
      "stateMutability": "nonpayable",
      "type": "function"
    }
  ],
  "devdoc": {
    "kind": "dev",
    "methods": {},
    "version": 1
  },
  "evm": {
    "assembly": "    /* \"OrganManagement.sol\":65:6288  contract OrganChain {... */\n  mstore(0x40, 0x80)\n    /* \"OrganManagement.sol\":1326:1372  constructor(){... */\n  callvalue\n  dup1\n  iszero\n  tag_1\n  jumpi\n  0x00\n  dup1\n  revert\ntag_1:\n  pop\n    /* \"OrganManagement.sol\":1349:1354  admin */\n  0x04\n    /* \"OrganManagement.sol\":1349:1365  admin=msg.sender */\n  dup1\n  sload\n  not(sub(shl(0xa0, 0x01), 0x01))\n  and\n    /* \"OrganManagement.sol\":1355:1365  msg.sender */\n  caller\n    /* \"OrganManagement.sol\":1349:1365  admin=msg.sender */\n  or\n  swap1\n  sstore\n    /* \"OrganManagement.sol\":65:6288  contract OrganChain {... */\n  dataSize(sub_0)\n  dup1\n  dataOffset(sub_0)\n  0x00\n  codecopy\n  0x00\n  return\nstop\n\nsub_0: assembly {\n        /* \"OrganManagement.sol\":65:6288  contract OrganChain {... */\n      mstore(0x40, 0x80)\n      jumpi(tag_1, lt(calldatasize, 0x04))\n      shr(0xe0, calldataload(0x00))\n      dup1\n      0x95cdc823\n      gt\n      tag_22\n      jumpi\n      dup1\n      0xc88c583a\n      gt\n      tag_23\n      jumpi\n      dup1\n      0xcd6cc7d4\n      gt\n      tag_24\n      jumpi\n      dup1\n      0xcd6cc7d4\n      eq\n      tag_19\n      jumpi\n      dup1\n      0xe15d046c\n      eq\n      tag_20\n      jumpi\n      dup1\n      0xf851a440\n      eq\n      tag_21\n      jumpi\n      0x00\n      dup1\n      revert\n    tag_24:\n      dup1\n      0xc88c583a\n      eq\n      tag_17\n      jumpi\n      dup1\n      0xccc1f580\n      eq\n      tag_18\n      jumpi\n      0x00\n      dup1\n      revert\n    tag_23:\n      dup1\n      0xa5bfe8b6\n      gt\n      tag_25\n      jumpi\n      dup1\n      0xa5bfe8b6\n      eq\n      tag_14\n      jumpi\n      dup1\n      0xa8072ecb\n      eq\n      tag_15\n      jumpi\n      dup1\n      0xc847a918\n      eq\n      tag_16\n      jumpi\n      0x00\n      dup1\n      revert\n    tag_25:\n      dup1\n      0x95cdc823\n      eq\n      tag_12\n      jumpi\n      dup1\n      0x9c067c86\n      eq\n      tag_13\n      jumpi\n      0x00\n      dup1\n      revert\n    tag_22:\n      dup1\n      0x4cfe2ee8\n      gt\n      tag_26\n      jumpi\n      dup1\n      0x621014fc\n      gt\n      tag_27\n      jumpi\n      dup1\n      0x621014fc\n      eq\n      tag_9\n      jumpi\n      dup1\n      0x67259f7c\n      eq\n      tag_10\n      jumpi\n      dup1\n      0x6fd094f4\n      eq\n      tag_11\n      jumpi\n      0x00\n      dup1\n      revert\n    tag_27:\n      dup1\n      0x4cfe2ee8\n      eq\n      tag_7\n      jumpi\n      dup1\n      0x5ec9693a\n      eq\n      tag_8\n      jumpi\n      0x00\n      dup1\n      revert\n    tag_26:\n      dup1\n      0x1f4ad38b\n      gt\n      tag_28\n      jumpi\n      dup1\n      0x1f4ad38b\n      eq\n      tag_4\n      jumpi\n      dup1\n      0x2ac8b49b\n      eq\n      tag_5\n      jumpi\n      dup1\n      0x3bbe7929\n      eq\n      tag_6\n      jumpi\n      0x00\n      dup1\n      revert\n    tag_28:\n      dup1\n      0x0bcfefed\n      eq\n      tag_2\n      jumpi\n      dup1\n      0x1b470bc7\n      eq\n      tag_3\n      jumpi\n    tag_1:\n      0x00\n      dup1\n      revert\n        /* \"OrganManagement.sol\":1062:1087  address[] public donorarr */\n    tag_2:\n      callvalue\n      dup1\n      iszero\n      tag_29\n      jumpi\n      0x00\n      dup1\n      revert\n    tag_29:\n      pop\n      tag_30\n      tag_31\n      calldatasize\n      0x04\n      tag_32\n      jump\t// in\n    tag_31:\n      tag_33\n      jump\t// in\n    tag_30:\n      mload(0x40)\n      sub(shl(0xa0, 0x01), 0x01)\n        /* \"#utility.yul\":363:418   */\n      swap1\n      swap2\n      and\n        /* \"#utility.yul\":345:419   */\n      dup2\n      mstore\n        /* \"#utility.yul\":333:335   */\n      0x20\n        /* \"#utility.yul\":318:336   */\n      add\n        /* \"OrganManagement.sol\":1062:1087  address[] public donorarr */\n    tag_34:\n      mload(0x40)\n      dup1\n      swap2\n      sub\n      swap1\n      return\n        /* \"OrganManagement.sol\":4089:4218  function addHospital(address hospitalId) ... */\n    tag_3:\n      tag_36\n      tag_37\n      calldatasize\n      0x04\n      tag_38\n      jump\t// in\n    tag_37:\n      tag_39\n      jump\t// in\n    tag_36:\n      stop\n        /* \"OrganManagement.sol\":4228:4333  function gethospitalcount() public view returns(uint256)... */\n    tag_4:\n      callvalue\n      dup1\n      iszero\n      tag_40\n      jumpi\n      0x00\n      dup1\n      revert\n    tag_40:\n      pop\n        /* \"OrganManagement.sol\":4307:4318  hospitalarr */\n      0x03\n        /* \"OrganManagement.sol\":4307:4325  hospitalarr.length */\n      sload\n        /* \"OrganManagement.sol\":4228:4333  function gethospitalcount() public view returns(uint256)... */\n    tag_41:\n      mload(0x40)\n        /* \"#utility.yul\":968:993   */\n      swap1\n      dup2\n      mstore\n        /* \"#utility.yul\":956:958   */\n      0x20\n        /* \"#utility.yul\":941:959   */\n      add\n        /* \"OrganManagement.sol\":4228:4333  function gethospitalcount() public view returns(uint256)... */\n      tag_34\n        /* \"#utility.yul\":822:999   */\n      jump\n        /* \"OrganManagement.sol\":1495:1544  mapping(address => transplant) public Transplants */\n    tag_5:\n      callvalue\n      dup1\n      iszero\n      tag_45\n      jumpi\n      0x00\n      dup1\n      revert\n    tag_45:\n      pop\n      tag_46\n      tag_47\n      calldatasize\n      0x04\n      tag_38\n      jump\t// in\n    tag_47:\n      mstore(0x20, 0x07)\n      0x00\n      swap1\n      dup2\n      mstore\n      0x40\n      swap1\n      keccak256\n      dup1\n      sload\n      0x01\n      dup3\n      add\n      sload\n      0x02\n      swap1\n      swap3\n      add\n      sload\n      sub(shl(0xa0, 0x01), 0x01)\n      swap2\n      dup3\n      and\n      swap3\n      dup3\n      and\n      swap2\n      dup2\n      and\n      swap1\n      shl(0xa0, 0x01)\n      swap1\n      div\n      0xff\n      and\n      dup5\n      jump\n    tag_46:\n      mload(0x40)\n      tag_34\n      swap5\n      swap4\n      swap3\n      swap2\n      swap1\n      sub(shl(0xa0, 0x01), 0x01)\n        /* \"#utility.yul\":1308:1323   */\n      swap5\n      dup6\n      and\n        /* \"#utility.yul\":1290:1324   */\n      dup2\n      mstore\n        /* \"#utility.yul\":1360:1375   */\n      swap3\n      dup5\n      and\n        /* \"#utility.yul\":1355:1357   */\n      0x20\n        /* \"#utility.yul\":1340:1358   */\n      dup5\n      add\n        /* \"#utility.yul\":1333:1376   */\n      mstore\n        /* \"#utility.yul\":1412:1427   */\n      swap3\n      and\n        /* \"#utility.yul\":1407:1409   */\n      0x40\n        /* \"#utility.yul\":1392:1410   */\n      dup3\n      add\n        /* \"#utility.yul\":1385:1428   */\n      mstore\n        /* \"#utility.yul\":1471:1485   */\n      swap1\n      iszero\n        /* \"#utility.yul\":1464:1486   */\n      iszero\n        /* \"#utility.yul\":1459:1461   */\n      0x60\n        /* \"#utility.yul\":1444:1462   */\n      dup3\n      add\n        /* \"#utility.yul\":1437:1487   */\n      mstore\n        /* \"#utility.yul\":1216:1219   */\n      0x80\n        /* \"#utility.yul\":1201:1220   */\n      add\n      swap1\n        /* \"#utility.yul\":1004:1493   */\n      jump\n        /* \"OrganManagement.sol\":3910:4079  function creatRequestHospital(string memory name) ... */\n    tag_6:\n      callvalue\n      dup1\n      iszero\n      tag_51\n      jumpi\n      0x00\n      dup1\n      revert\n    tag_51:\n      pop\n      tag_36\n      tag_53\n      calldatasize\n      0x04\n      tag_54\n      jump\t// in\n    tag_53:\n      tag_55\n      jump\t// in\n        /* \"OrganManagement.sol\":1397:1444  mapping(address => recipient) public Recipients */\n    tag_7:\n      callvalue\n      dup1\n      iszero\n      tag_56\n      jumpi\n      0x00\n      dup1\n      revert\n    tag_56:\n      pop\n      tag_57\n      tag_58\n      calldatasize\n      0x04\n      tag_38\n      jump\t// in\n    tag_58:\n      tag_59\n      jump\t// in\n    tag_57:\n      mload(0x40)\n      tag_34\n      swap8\n      swap7\n      swap6\n      swap5\n      swap4\n      swap3\n      swap2\n      swap1\n      tag_61\n      jump\t// in\n        /* \"OrganManagement.sol\":5435:6173  function transplantmatch(address recipientad) public... */\n    tag_8:\n      callvalue\n      dup1\n      iszero\n      tag_62\n      jumpi\n      0x00\n      dup1\n      revert\n    tag_62:\n      pop\n      tag_30\n      tag_64\n      calldatasize\n      0x04\n      tag_38\n      jump\t// in\n    tag_64:\n      tag_65\n      jump\t// in\n        /* \"OrganManagement.sol\":1550:1594  mapping(address => Hospital) public hospital */\n    tag_9:\n      callvalue\n      dup1\n      iszero\n      tag_67\n      jumpi\n      0x00\n      dup1\n      revert\n    tag_67:\n      pop\n      tag_68\n      tag_69\n      calldatasize\n      0x04\n      tag_38\n      jump\t// in\n    tag_69:\n      tag_70\n      jump\t// in\n    tag_68:\n      mload(0x40)\n      tag_34\n      swap4\n      swap3\n      swap2\n      swap1\n      tag_72\n      jump\t// in\n        /* \"OrganManagement.sol\":5273:5379  function getrecipientcount() public view returns(uint256)... */\n    tag_10:\n      callvalue\n      dup1\n      iszero\n      tag_73\n      jumpi\n      0x00\n      dup1\n      revert\n    tag_73:\n      pop\n        /* \"OrganManagement.sol\":5322:5329  uint256 */\n      0x00\n        /* \"OrganManagement.sol\":5352:5371  recipientarr.length */\n      sload\n        /* \"OrganManagement.sol\":5273:5379  function getrecipientcount() public view returns(uint256)... */\n      jump(tag_41)\n        /* \"OrganManagement.sol\":1450:1489  mapping(address => donor) public Donors */\n    tag_11:\n      callvalue\n      dup1\n      iszero\n      tag_77\n      jumpi\n      0x00\n      dup1\n      revert\n    tag_77:\n      pop\n      tag_57\n      tag_79\n      calldatasize\n      0x04\n      tag_38\n      jump\t// in\n    tag_79:\n      tag_80\n      jump\t// in\n        /* \"OrganManagement.sol\":2347:2700  function creatRequestDonar(... */\n    tag_12:\n      callvalue\n      dup1\n      iszero\n      tag_82\n      jumpi\n      0x00\n      dup1\n      revert\n    tag_82:\n      pop\n      tag_36\n      tag_84\n      calldatasize\n      0x04\n      tag_85\n      jump\t// in\n    tag_84:\n      tag_86\n      jump\t// in\n        /* \"OrganManagement.sol\":1218:1246  address[] public hospitalarr */\n    tag_13:\n      callvalue\n      dup1\n      iszero\n      tag_87\n      jumpi\n      0x00\n      dup1\n      revert\n    tag_87:\n      pop\n      tag_30\n      tag_89\n      calldatasize\n      0x04\n      tag_32\n      jump\t// in\n    tag_89:\n      tag_90\n      jump\t// in\n        /* \"OrganManagement.sol\":4717:4871  function addrecipient(... */\n    tag_14:\n      tag_36\n      tag_93\n      calldatasize\n      0x04\n      tag_38\n      jump\t// in\n    tag_93:\n      tag_94\n      jump\t// in\n        /* \"OrganManagement.sol\":3776:3874  function getDonorcount() public view returns(uint256)... */\n    tag_15:\n      callvalue\n      dup1\n      iszero\n      tag_95\n      jumpi\n      0x00\n      dup1\n      revert\n    tag_95:\n      pop\n        /* \"OrganManagement.sol\":3851:3859  donorarr */\n      0x01\n        /* \"OrganManagement.sol\":3851:3866  donorarr.length */\n      sload\n        /* \"OrganManagement.sol\":3776:3874  function getDonorcount() public view returns(uint256)... */\n      jump(tag_41)\n        /* \"OrganManagement.sol\":982:1011  address[] public recipientarr */\n    tag_16:\n      callvalue\n      dup1\n      iszero\n      tag_99\n      jumpi\n      0x00\n      dup1\n      revert\n    tag_99:\n      pop\n      tag_30\n      tag_101\n      calldatasize\n      0x04\n      tag_32\n      jump\t// in\n    tag_101:\n      tag_102\n      jump\t// in\n        /* \"OrganManagement.sol\":4374:4712  function creatRequestRecipient(... */\n    tag_17:\n      callvalue\n      dup1\n      iszero\n      tag_104\n      jumpi\n      0x00\n      dup1\n      revert\n    tag_104:\n      pop\n      tag_36\n      tag_106\n      calldatasize\n      0x04\n      tag_85\n      jump\t// in\n    tag_106:\n      tag_107\n      jump\t// in\n        /* \"OrganManagement.sol\":6178:6280  function gettransplantlength()public view returns(uint256){... */\n    tag_18:\n      callvalue\n      dup1\n      iszero\n      tag_108\n      jumpi\n      0x00\n      dup1\n      revert\n    tag_108:\n      pop\n        /* \"OrganManagement.sol\":6253:6266  transplantarr */\n      0x02\n        /* \"OrganManagement.sol\":6253:6273  transplantarr.length */\n      sload\n        /* \"OrganManagement.sol\":6178:6280  function gettransplantlength()public view returns(uint256){... */\n      jump(tag_41)\n        /* \"OrganManagement.sol\":1137:1167  address[] public transplantarr */\n    tag_19:\n      callvalue\n      dup1\n      iszero\n      tag_112\n      jumpi\n      0x00\n      dup1\n      revert\n    tag_112:\n      pop\n      tag_30\n      tag_114\n      calldatasize\n      0x04\n      tag_32\n      jump\t// in\n    tag_114:\n      tag_115\n      jump\t// in\n        /* \"OrganManagement.sol\":2710:2858  function addDonar(address donori) public payable restricted{... */\n    tag_20:\n      tag_36\n      tag_118\n      calldatasize\n      0x04\n      tag_38\n      jump\t// in\n    tag_118:\n      tag_119\n      jump\t// in\n        /* \"OrganManagement.sol\":1252:1272  address public admin */\n    tag_21:\n      callvalue\n      dup1\n      iszero\n      tag_120\n      jumpi\n      0x00\n      dup1\n      revert\n    tag_120:\n      pop\n      sload(0x04)\n      tag_30\n      swap1\n      sub(shl(0xa0, 0x01), 0x01)\n      and\n      dup2\n      jump\n        /* \"OrganManagement.sol\":1062:1087  address[] public donorarr */\n    tag_33:\n      0x01\n      dup2\n      dup2\n      sload\n      dup2\n      lt\n      tag_124\n      jumpi\n      0x00\n      dup1\n      revert\n    tag_124:\n      0x00\n      swap2\n      dup3\n      mstore\n      0x20\n      swap1\n      swap2\n      keccak256\n      add\n      sload\n      sub(shl(0xa0, 0x01), 0x01)\n      and\n      swap1\n      pop\n      dup2\n      jump\t// out\n        /* \"OrganManagement.sol\":4089:4218  function addHospital(address hospitalId) ... */\n    tag_39:\n        /* \"OrganManagement.sol\":2281:2286  admin */\n      and(sub(shl(0xa0, 0x01), 0x01), sload(0x04))\n        /* \"OrganManagement.sol\":2269:2279  msg.sender */\n      caller\n        /* \"OrganManagement.sol\":2269:2286  msg.sender==admin */\n      eq\n        /* \"OrganManagement.sol\":2261:2287  require(msg.sender==admin) */\n      tag_127\n      jumpi\n      0x00\n      dup1\n      revert\n    tag_127:\n      sub(shl(0xa0, 0x01), 0x01)\n        /* \"OrganManagement.sol\":4180:4200  hospital[hospitalId] */\n      and\n      0x00\n      swap1\n      dup2\n      mstore\n        /* \"OrganManagement.sol\":4180:4188  hospital */\n      0x08\n        /* \"OrganManagement.sol\":4180:4200  hospital[hospitalId] */\n      0x20\n      mstore\n      0x40\n      swap1\n      keccak256\n        /* \"OrganManagement.sol\":4180:4206  hospital[hospitalId].added */\n      0x02\n      add\n        /* \"OrganManagement.sol\":4180:4211  hospital[hospitalId].added=true */\n      dup1\n      sload\n      not(0xff)\n      and\n        /* \"OrganManagement.sol\":4207:4211  true */\n      0x01\n        /* \"OrganManagement.sol\":4180:4211  hospital[hospitalId].added=true */\n      or\n      swap1\n      sstore\n        /* \"OrganManagement.sol\":4089:4218  function addHospital(address hospitalId) ... */\n      jump\t// out\n        /* \"OrganManagement.sol\":3910:4079  function creatRequestHospital(string memory name) ... */\n    tag_55:\n        /* \"OrganManagement.sol\":4003:4034  Hospital(msg.sender,name,false) */\n      0x40\n      dup1\n      mload\n      0x60\n      dup2\n      add\n      dup3\n      mstore\n        /* \"OrganManagement.sol\":4012:4022  msg.sender */\n      caller\n        /* \"OrganManagement.sol\":4003:4034  Hospital(msg.sender,name,false) */\n      dup1\n      dup3\n      mstore\n      0x20\n      dup1\n      dup4\n      add\n      dup6\n      dup2\n      mstore\n      0x00\n      dup5\n      dup7\n      add\n      dup2\n      swap1\n      mstore\n        /* \"OrganManagement.sol\":3982:4002  hospital[msg.sender] */\n      swap3\n      dup4\n      mstore\n        /* \"OrganManagement.sol\":3982:3990  hospital */\n      0x08\n        /* \"OrganManagement.sol\":3982:4002  hospital[msg.sender] */\n      swap1\n      swap2\n      mstore\n      swap3\n      swap1\n      keccak256\n        /* \"OrganManagement.sol\":3982:4034  hospital[msg.sender]=Hospital(msg.sender,name,false) */\n      dup2\n      mload\n      dup2\n      sload\n      not(sub(shl(0xa0, 0x01), 0x01))\n      and\n      sub(shl(0xa0, 0x01), 0x01)\n      swap1\n      swap2\n      and\n      or\n      dup2\n      sstore\n      swap2\n      mload\n        /* \"OrganManagement.sol\":4003:4034  Hospital(msg.sender,name,false) */\n      swap1\n      swap2\n        /* \"OrganManagement.sol\":3982:4002  hospital[msg.sender] */\n      swap1\n      0x01\n        /* \"OrganManagement.sol\":3982:4034  hospital[msg.sender]=Hospital(msg.sender,name,false) */\n      dup3\n      add\n      swap1\n      tag_131\n      swap1\n      dup3\n      tag_132\n      jump\t// in\n    tag_131:\n      pop\n      0x40\n      swap2\n      swap1\n      swap2\n      add\n      mload\n      0x02\n      swap1\n      swap2\n      add\n      dup1\n      sload\n      swap2\n      iszero\n      iszero\n      not(0xff)\n      swap1\n      swap3\n      and\n      swap2\n      swap1\n      swap2\n      or\n      swap1\n      sstore\n      pop\n        /* \"OrganManagement.sol\":4044:4055  hospitalarr */\n      0x03\n        /* \"OrganManagement.sol\":4044:4072  hospitalarr.push(msg.sender) */\n      dup1\n      sload\n        /* \"OrganManagement.sol\":3982:4034  hospital[msg.sender]=Hospital(msg.sender,name,false) */\n      0x01\n        /* \"OrganManagement.sol\":4044:4072  hospitalarr.push(msg.sender) */\n      dup2\n      add\n      dup3\n      sstore\n        /* \"OrganManagement.sol\":3982:4034  hospital[msg.sender]=Hospital(msg.sender,name,false) */\n      0x00\n        /* \"OrganManagement.sol\":4044:4072  hospitalarr.push(msg.sender) */\n      swap2\n      swap1\n      swap2\n      mstore\n      0xc2575a0e9e593c00f959f8c92f12db2869c3395a3b0502d05e2516446f71f85b\n      add\n      dup1\n      sload\n      not(sub(shl(0xa0, 0x01), 0x01))\n      and\n        /* \"OrganManagement.sol\":4061:4071  msg.sender */\n      caller\n        /* \"OrganManagement.sol\":4044:4072  hospitalarr.push(msg.sender) */\n      or\n      swap1\n      sstore\n        /* \"OrganManagement.sol\":3910:4079  function creatRequestHospital(string memory name) ... */\n      jump\t// out\n        /* \"OrganManagement.sol\":1397:1444  mapping(address => recipient) public Recipients */\n    tag_59:\n      mstore(0x20, 0x05)\n      0x00\n      swap1\n      dup2\n      mstore\n      0x40\n      swap1\n      keccak256\n      dup1\n      sload\n      0x01\n      dup3\n      add\n      sload\n      0x02\n      dup4\n      add\n      dup1\n      sload\n      sub(shl(0xa0, 0x01), 0x01)\n      swap4\n      dup5\n      and\n      swap5\n      swap3\n      swap1\n      swap4\n      and\n      swap3\n      tag_134\n      swap1\n      tag_135\n      jump\t// in\n    tag_134:\n      dup1\n      0x1f\n      add\n      0x20\n      dup1\n      swap2\n      div\n      mul\n      0x20\n      add\n      mload(0x40)\n      swap1\n      dup2\n      add\n      0x40\n      mstore\n      dup1\n      swap3\n      swap2\n      swap1\n      dup2\n      dup2\n      mstore\n      0x20\n      add\n      dup3\n      dup1\n      sload\n      tag_136\n      swap1\n      tag_135\n      jump\t// in\n    tag_136:\n      dup1\n      iszero\n      tag_137\n      jumpi\n      dup1\n      0x1f\n      lt\n      tag_138\n      jumpi\n      0x0100\n      dup1\n      dup4\n      sload\n      div\n      mul\n      dup4\n      mstore\n      swap2\n      0x20\n      add\n      swap2\n      jump(tag_137)\n    tag_138:\n      dup3\n      add\n      swap2\n      swap1\n      0x00\n      mstore\n      keccak256(0x00, 0x20)\n      swap1\n    tag_139:\n      dup2\n      sload\n      dup2\n      mstore\n      swap1\n      0x01\n      add\n      swap1\n      0x20\n      add\n      dup1\n      dup4\n      gt\n      tag_139\n      jumpi\n      dup3\n      swap1\n      sub\n      0x1f\n      and\n      dup3\n      add\n      swap2\n    tag_137:\n      pop\n      pop\n      pop\n      pop\n      pop\n      swap1\n      dup1\n      0x03\n      add\n      dup1\n      sload\n      tag_140\n      swap1\n      tag_135\n      jump\t// in\n    tag_140:\n      dup1\n      0x1f\n      add\n      0x20\n      dup1\n      swap2\n      div\n      mul\n      0x20\n      add\n      mload(0x40)\n      swap1\n      dup2\n      add\n      0x40\n      mstore\n      dup1\n      swap3\n      swap2\n      swap1\n      dup2\n      dup2\n      mstore\n      0x20\n      add\n      dup3\n      dup1\n      sload\n      tag_141\n      swap1\n      tag_135\n      jump\t// in\n    tag_141:\n      dup1\n      iszero\n      tag_142\n      jumpi\n      dup1\n      0x1f\n      lt\n      tag_143\n      jumpi\n      0x0100\n      dup1\n      dup4\n      sload\n      div\n      mul\n      dup4\n      mstore\n      swap2\n      0x20\n      add\n      swap2\n      jump(tag_142)\n    tag_143:\n      dup3\n      add\n      swap2\n      swap1\n      0x00\n      mstore\n      keccak256(0x00, 0x20)\n      swap1\n    tag_144:\n      dup2\n      sload\n      dup2\n      mstore\n      swap1\n      0x01\n      add\n      swap1\n      0x20\n      add\n      dup1\n      dup4\n      gt\n      tag_144\n      jumpi\n      dup3\n      swap1\n      sub\n      0x1f\n      and\n      dup3\n      add\n      swap2\n    tag_142:\n      pop\n      pop\n      pop\n      0x04\n      swap1\n      swap4\n      add\n      sload\n      swap2\n      swap3\n      pop\n      pop\n      0xff\n      dup1\n      dup3\n      and\n      swap2\n      0x0100\n      dup2\n      div\n      dup3\n      and\n      swap2\n      0x010000\n      swap1\n      swap2\n      div\n      and\n      dup8\n      jump\t// out\n        /* \"OrganManagement.sol\":5435:6173  function transplantmatch(address recipientad) public... */\n    tag_65:\n        /* \"OrganManagement.sol\":5500:5509  address a */\n      0x00\n      dup1\n        /* \"OrganManagement.sol\":5521:6167  for(uint i=0;i<donorarr.length;i++)... */\n    tag_146:\n        /* \"OrganManagement.sol\":5536:5544  donorarr */\n      0x01\n        /* \"OrganManagement.sol\":5536:5551  donorarr.length */\n      sload\n        /* \"OrganManagement.sol\":5534:5551  i<donorarr.length */\n      dup2\n      lt\n        /* \"OrganManagement.sol\":5521:6167  for(uint i=0;i<donorarr.length;i++)... */\n      iszero\n      tag_147\n      jumpi\n        /* \"OrganManagement.sol\":5674:5680  Donors */\n      0x06\n        /* \"OrganManagement.sol\":5674:5693  Donors[donorarr[i]] */\n      0x00\n        /* \"OrganManagement.sol\":5681:5689  donorarr */\n      0x01\n        /* \"OrganManagement.sol\":5690:5691  i */\n      dup4\n        /* \"OrganManagement.sol\":5681:5692  donorarr[i] */\n      dup2\n      sload\n      dup2\n      lt\n      tag_150\n      jumpi\n      tag_150\n      tag_151\n      jump\t// in\n    tag_150:\n      0x00\n      swap2\n      dup3\n      mstore\n      0x20\n      dup1\n      dup4\n      keccak256\n      swap1\n      swap2\n      add\n      sload\n      sub(shl(0xa0, 0x01), 0x01)\n      and\n        /* \"OrganManagement.sol\":5674:5693  Donors[donorarr[i]] */\n      dup4\n      mstore\n      dup3\n      dup2\n      add\n      swap4\n      swap1\n      swap4\n      mstore\n      0x40\n      swap2\n      dup3\n      add\n      swap1\n      keccak256\n        /* \"OrganManagement.sol\":5656:5701  abi.encodePacked((Donors[donorarr[i]].organ)) */\n      swap1\n      mload\n      tag_153\n      swap3\n        /* \"OrganManagement.sol\":5674:5699  Donors[donorarr[i]].organ */\n      0x02\n      swap1\n      swap3\n      add\n      swap2\n        /* \"OrganManagement.sol\":5656:5701  abi.encodePacked((Donors[donorarr[i]].organ)) */\n      add\n      tag_154\n      jump\t// in\n    tag_153:\n      0x40\n      dup1\n      mload\n      not(0x1f)\n      dup2\n      dup5\n      sub\n      add\n      dup2\n      mstore\n      dup3\n      dup3\n      mstore\n        /* \"OrganManagement.sol\":5646:5702  keccak256(abi.encodePacked((Donors[donorarr[i]].organ))) */\n      dup1\n      mload\n        /* \"OrganManagement.sol\":5656:5701  abi.encodePacked((Donors[donorarr[i]].organ)) */\n      0x20\n        /* \"OrganManagement.sol\":5646:5702  keccak256(abi.encodePacked((Donors[donorarr[i]].organ))) */\n      swap2\n      dup3\n      add\n      keccak256\n      sub(shl(0xa0, 0x01), 0x01)\n        /* \"OrganManagement.sol\":5612:5635  Recipients[recipientad] */\n      dup8\n      and\n      0x00\n      swap1\n      dup2\n      mstore\n        /* \"OrganManagement.sol\":5612:5622  Recipients */\n      0x05\n        /* \"OrganManagement.sol\":5612:5635  Recipients[recipientad] */\n      dup4\n      mstore\n      swap3\n      swap1\n      swap3\n      keccak256\n        /* \"OrganManagement.sol\":5646:5702  keccak256(abi.encodePacked((Donors[donorarr[i]].organ))) */\n      swap2\n      swap3\n        /* \"OrganManagement.sol\":5594:5643  abi.encodePacked((Recipients[recipientad].organ)) */\n      tag_155\n      swap3\n        /* \"OrganManagement.sol\":5612:5641  Recipients[recipientad].organ */\n      0x02\n      add\n      swap2\n        /* \"OrganManagement.sol\":5594:5643  abi.encodePacked((Recipients[recipientad].organ)) */\n      add\n      tag_154\n      jump\t// in\n    tag_155:\n      mload(0x40)\n      0x20\n      dup2\n      dup4\n      sub\n      sub\n      dup2\n      mstore\n      swap1\n      0x40\n      mstore\n        /* \"OrganManagement.sol\":5584:5644  keccak256(abi.encodePacked((Recipients[recipientad].organ))) */\n      dup1\n      mload\n      swap1\n      0x20\n      add\n      keccak256\n        /* \"OrganManagement.sol\":5584:5702  keccak256(abi.encodePacked((Recipients[recipientad].organ)))==keccak256(abi.encodePacked((Donors[donorarr[i]].organ))) */\n      eq\n        /* \"OrganManagement.sol\":5583:5851  (keccak256(abi.encodePacked((Recipients[recipientad].organ)))==keccak256(abi.encodePacked((Donors[donorarr[i]].organ)))) ... */\n      dup1\n      iszero\n      tag_156\n      jumpi\n      pop\n        /* \"OrganManagement.sol\":5816:5822  Donors */\n      0x06\n        /* \"OrganManagement.sol\":5816:5835  Donors[donorarr[i]] */\n      0x00\n        /* \"OrganManagement.sol\":5823:5831  donorarr */\n      0x01\n        /* \"OrganManagement.sol\":5832:5833  i */\n      dup4\n        /* \"OrganManagement.sol\":5823:5834  donorarr[i] */\n      dup2\n      sload\n      dup2\n      lt\n      tag_158\n      jumpi\n      tag_158\n      tag_151\n      jump\t// in\n    tag_158:\n      0x00\n      swap2\n      dup3\n      mstore\n      0x20\n      dup1\n      dup4\n      keccak256\n      swap1\n      swap2\n      add\n      sload\n      sub(shl(0xa0, 0x01), 0x01)\n      and\n        /* \"OrganManagement.sol\":5816:5835  Donors[donorarr[i]] */\n      dup4\n      mstore\n      dup3\n      dup2\n      add\n      swap4\n      swap1\n      swap4\n      mstore\n      0x40\n      swap2\n      dup3\n      add\n      swap1\n      keccak256\n        /* \"OrganManagement.sol\":5798:5848  abi.encodePacked((Donors[donorarr[i]].bloodgroup)) */\n      swap1\n      mload\n      tag_160\n      swap3\n        /* \"OrganManagement.sol\":5816:5846  Donors[donorarr[i]].bloodgroup */\n      0x03\n      swap1\n      swap3\n      add\n      swap2\n        /* \"OrganManagement.sol\":5798:5848  abi.encodePacked((Donors[donorarr[i]].bloodgroup)) */\n      add\n      tag_154\n      jump\t// in\n    tag_160:\n      0x40\n      dup1\n      mload\n      not(0x1f)\n      dup2\n      dup5\n      sub\n      add\n      dup2\n      mstore\n      dup3\n      dup3\n      mstore\n        /* \"OrganManagement.sol\":5788:5849  keccak256(abi.encodePacked((Donors[donorarr[i]].bloodgroup))) */\n      dup1\n      mload\n        /* \"OrganManagement.sol\":5798:5848  abi.encodePacked((Donors[donorarr[i]].bloodgroup)) */\n      0x20\n        /* \"OrganManagement.sol\":5788:5849  keccak256(abi.encodePacked((Donors[donorarr[i]].bloodgroup))) */\n      swap2\n      dup3\n      add\n      keccak256\n      sub(shl(0xa0, 0x01), 0x01)\n        /* \"OrganManagement.sol\":5749:5772  Recipients[recipientad] */\n      dup8\n      and\n      0x00\n      swap1\n      dup2\n      mstore\n        /* \"OrganManagement.sol\":5749:5759  Recipients */\n      0x05\n        /* \"OrganManagement.sol\":5749:5772  Recipients[recipientad] */\n      dup4\n      mstore\n      swap3\n      swap1\n      swap3\n      keccak256\n        /* \"OrganManagement.sol\":5788:5849  keccak256(abi.encodePacked((Donors[donorarr[i]].bloodgroup))) */\n      swap2\n      swap3\n        /* \"OrganManagement.sol\":5731:5785  abi.encodePacked((Recipients[recipientad].bloodgroup)) */\n      tag_161\n      swap3\n        /* \"OrganManagement.sol\":5749:5783  Recipients[recipientad].bloodgroup */\n      0x03\n      add\n      swap2\n        /* \"OrganManagement.sol\":5731:5785  abi.encodePacked((Recipients[recipientad].bloodgroup)) */\n      add\n      tag_154\n      jump\t// in\n    tag_161:\n      mload(0x40)\n      0x20\n      dup2\n      dup4\n      sub\n      sub\n      dup2\n      mstore\n      swap1\n      0x40\n      mstore\n        /* \"OrganManagement.sol\":5721:5786  keccak256(abi.encodePacked((Recipients[recipientad].bloodgroup))) */\n      dup1\n      mload\n      swap1\n      0x20\n      add\n      keccak256\n        /* \"OrganManagement.sol\":5721:5849  keccak256(abi.encodePacked((Recipients[recipientad].bloodgroup)))==keccak256(abi.encodePacked((Donors[donorarr[i]].bloodgroup))) */\n      eq\n        /* \"OrganManagement.sol\":5583:5851  (keccak256(abi.encodePacked((Recipients[recipientad].organ)))==keccak256(abi.encodePacked((Donors[donorarr[i]].organ)))) ... */\n    tag_156:\n        /* \"OrganManagement.sol\":5579:6157  if( (keccak256(abi.encodePacked((Recipients[recipientad].organ)))==keccak256(abi.encodePacked((Donors[donorarr[i]].organ)))) ... */\n      iszero\n      tag_162\n      jumpi\n        /* \"OrganManagement.sol\":5894:5945  transplant(recipientad,donorarr[i],msg.sender,true) */\n      mload(0x40)\n      dup1\n      0x80\n      add\n      0x40\n      mstore\n      dup1\n        /* \"OrganManagement.sol\":5905:5916  recipientad */\n      dup5\n      sub(shl(0xa0, 0x01), 0x01)\n        /* \"OrganManagement.sol\":5894:5945  transplant(recipientad,donorarr[i],msg.sender,true) */\n      and\n      dup2\n      mstore\n      0x20\n      add\n        /* \"OrganManagement.sol\":5917:5925  donorarr */\n      0x01\n        /* \"OrganManagement.sol\":5926:5927  i */\n      dup4\n        /* \"OrganManagement.sol\":5917:5928  donorarr[i] */\n      dup2\n      sload\n      dup2\n      lt\n      tag_164\n      jumpi\n      tag_164\n      tag_151\n      jump\t// in\n    tag_164:\n      0x00\n      swap2\n      dup3\n      mstore\n      0x20\n      dup1\n      dup4\n      keccak256\n      swap1\n      swap2\n      add\n      sload\n      sub(shl(0xa0, 0x01), 0x01)\n      swap1\n      dup2\n      and\n        /* \"OrganManagement.sol\":5894:5945  transplant(recipientad,donorarr[i],msg.sender,true) */\n      dup5\n      mstore\n        /* \"OrganManagement.sol\":5929:5939  msg.sender */\n      caller\n        /* \"OrganManagement.sol\":5894:5945  transplant(recipientad,donorarr[i],msg.sender,true) */\n      dup5\n      dup4\n      add\n      mstore\n        /* \"OrganManagement.sol\":5917:5928  donorarr[i] */\n      0x01\n        /* \"OrganManagement.sol\":5894:5945  transplant(recipientad,donorarr[i],msg.sender,true) */\n      0x40\n      swap5\n      dup6\n      add\n      dup2\n      swap1\n      mstore\n        /* \"OrganManagement.sol\":5869:5893  Transplants[recipientad] */\n      dup9\n      dup3\n      and\n      dup1\n      dup6\n      mstore\n        /* \"OrganManagement.sol\":5869:5880  Transplants */\n      0x07\n        /* \"OrganManagement.sol\":5869:5893  Transplants[recipientad] */\n      dup5\n      mstore\n      dup6\n      dup6\n      keccak256\n        /* \"OrganManagement.sol\":5869:5945  Transplants[recipientad]=transplant(recipientad,donorarr[i],msg.sender,true) */\n      dup8\n      mload\n      dup2\n      sload\n      swap1\n      dup6\n      and\n      not(sub(shl(0xa0, 0x01), 0x01))\n      swap2\n      dup3\n      and\n      or\n      dup3\n      sstore\n      dup9\n      dup7\n      add\n      mload\n      dup3\n      dup6\n      add\n      dup1\n      sload\n      swap2\n      dup8\n      and\n      swap2\n      dup4\n      and\n      swap2\n      swap1\n      swap2\n      or\n      swap1\n      sstore\n      dup9\n      dup9\n      add\n      mload\n      0x02\n      swap3\n      dup4\n      add\n      dup1\n      sload\n      0x60\n      swap1\n      swap12\n      add\n      mload\n      iszero\n      iszero\n      shl(0xa0, 0x01)\n      mul\n      0xffffffffffffffffffffff000000000000000000000000000000000000000000\n      swap1\n      swap12\n      and\n      swap2\n      swap1\n      swap7\n      and\n      or\n      swap9\n      swap1\n      swap9\n      or\n      swap1\n      swap4\n      sstore\n        /* \"OrganManagement.sol\":5963:5994  transplantarr.push(recipientad) */\n      dup3\n      sload\n      dup1\n      dup4\n      add\n      swap1\n      swap4\n      sstore\n      0x405787fa12a823e0f2b7631cc41b3ba8828b3321ca811111fa75cd3aa3bb5ace\n      swap1\n      swap3\n      add\n      dup1\n      sload\n      swap1\n      swap7\n      and\n      dup3\n      or\n      swap1\n      swap6\n      sstore\n        /* \"OrganManagement.sol\":6012:6035  Recipients[recipientad] */\n      dup3\n      mstore\n        /* \"OrganManagement.sol\":6012:6022  Recipients */\n      0x05\n        /* \"OrganManagement.sol\":6012:6035  Recipients[recipientad] */\n      swap1\n      mstore\n      swap1\n      dup2\n      keccak256\n        /* \"OrganManagement.sol\":6012:6046  Recipients[recipientad].matchfound */\n      0x04\n      add\n        /* \"OrganManagement.sol\":6012:6051  Recipients[recipientad].matchfound=true */\n      dup1\n      sload\n      not(0xff)\n      and\n      dup4\n      or\n      swap1\n      sstore\n        /* \"OrganManagement.sol\":6076:6087  donorarr[i] */\n      dup2\n      sload\n        /* \"OrganManagement.sol\":6069:6075  Donors */\n      0x06\n      swap2\n        /* \"OrganManagement.sol\":5917:5928  donorarr[i] */\n      swap1\n      dup4\n      swap1\n        /* \"OrganManagement.sol\":6085:6086  i */\n      dup6\n      swap1\n        /* \"OrganManagement.sol\":6076:6087  donorarr[i] */\n      dup2\n      lt\n      tag_168\n      jumpi\n      tag_168\n      tag_151\n      jump\t// in\n    tag_168:\n      0x00\n      swap2\n      dup3\n      mstore\n      0x20\n      dup1\n      dup4\n      keccak256\n      swap2\n      swap1\n      swap2\n      add\n      sload\n      sub(shl(0xa0, 0x01), 0x01)\n      and\n        /* \"OrganManagement.sol\":6069:6088  Donors[donorarr[i]] */\n      dup4\n      mstore\n      dup3\n      add\n      swap3\n      swap1\n      swap3\n      mstore\n      0x40\n      add\n      swap1\n      keccak256\n        /* \"OrganManagement.sol\":6069:6099  Donors[donorarr[i]].matchfound */\n      0x04\n      add\n        /* \"OrganManagement.sol\":6069:6104  Donors[donorarr[i]].matchfound=true */\n      dup1\n      sload\n      not(0xff)\n      and\n      swap2\n      iszero\n      iszero\n      swap2\n      swap1\n      swap2\n      or\n      swap1\n      sstore\n      0x01\n        /* \"OrganManagement.sol\":6130:6141  donorarr[i] */\n      dup1\n      sload\n        /* \"OrganManagement.sol\":6139:6140  i */\n      dup3\n      swap1\n        /* \"OrganManagement.sol\":6130:6141  donorarr[i] */\n      dup2\n      lt\n      tag_171\n      jumpi\n      tag_171\n      tag_151\n      jump\t// in\n    tag_171:\n      0x00\n      swap2\n      dup3\n      mstore\n      0x20\n      swap1\n      swap2\n      keccak256\n      add\n      sload\n      sub(shl(0xa0, 0x01), 0x01)\n      and\n      swap4\n        /* \"OrganManagement.sol\":5435:6173  function transplantmatch(address recipientad) public... */\n      swap3\n      pop\n      pop\n      pop\n      jump\t// out\n        /* \"OrganManagement.sol\":5579:6157  if( (keccak256(abi.encodePacked((Recipients[recipientad].organ)))==keccak256(abi.encodePacked((Donors[donorarr[i]].organ)))) ... */\n    tag_162:\n        /* \"OrganManagement.sol\":5552:5555  i++ */\n      dup1\n      tag_173\n      dup2\n      tag_174\n      jump\t// in\n    tag_173:\n      swap2\n      pop\n      pop\n        /* \"OrganManagement.sol\":5521:6167  for(uint i=0;i<donorarr.length;i++)... */\n      jump(tag_146)\n    tag_147:\n      pop\n        /* \"OrganManagement.sol\":5435:6173  function transplantmatch(address recipientad) public... */\n      swap2\n      swap1\n      pop\n      jump\t// out\n        /* \"OrganManagement.sol\":1550:1594  mapping(address => Hospital) public hospital */\n    tag_70:\n      mstore(0x20, 0x08)\n      0x00\n      swap1\n      dup2\n      mstore\n      0x40\n      swap1\n      keccak256\n      dup1\n      sload\n      0x01\n      dup3\n      add\n      dup1\n      sload\n      sub(shl(0xa0, 0x01), 0x01)\n      swap1\n      swap3\n      and\n      swap3\n      swap2\n      tag_175\n      swap1\n      tag_135\n      jump\t// in\n    tag_175:\n      dup1\n      0x1f\n      add\n      0x20\n      dup1\n      swap2\n      div\n      mul\n      0x20\n      add\n      mload(0x40)\n      swap1\n      dup2\n      add\n      0x40\n      mstore\n      dup1\n      swap3\n      swap2\n      swap1\n      dup2\n      dup2\n      mstore\n      0x20\n      add\n      dup3\n      dup1\n      sload\n      tag_176\n      swap1\n      tag_135\n      jump\t// in\n    tag_176:\n      dup1\n      iszero\n      tag_177\n      jumpi\n      dup1\n      0x1f\n      lt\n      tag_178\n      jumpi\n      0x0100\n      dup1\n      dup4\n      sload\n      div\n      mul\n      dup4\n      mstore\n      swap2\n      0x20\n      add\n      swap2\n      jump(tag_177)\n    tag_178:\n      dup3\n      add\n      swap2\n      swap1\n      0x00\n      mstore\n      keccak256(0x00, 0x20)\n      swap1\n    tag_179:\n      dup2\n      sload\n      dup2\n      mstore\n      swap1\n      0x01\n      add\n      swap1\n      0x20\n      add\n      dup1\n      dup4\n      gt\n      tag_179\n      jumpi\n      dup3\n      swap1\n      sub\n      0x1f\n      and\n      dup3\n      add\n      swap2\n    tag_177:\n      pop\n      pop\n      pop\n      0x02\n      swap1\n      swap4\n      add\n      sload\n      swap2\n      swap3\n      pop\n      pop\n      0xff\n      and\n      dup4\n      jump\t// out\n        /* \"OrganManagement.sol\":1450:1489  mapping(address => donor) public Donors */\n    tag_80:\n      mstore(0x20, 0x06)\n      0x00\n      swap1\n      dup2\n      mstore\n      0x40\n      swap1\n      keccak256\n      dup1\n      sload\n      0x01\n      dup3\n      add\n      sload\n      0x02\n      dup4\n      add\n      dup1\n      sload\n      sub(shl(0xa0, 0x01), 0x01)\n      swap4\n      dup5\n      and\n      swap5\n      swap3\n      swap1\n      swap4\n      and\n      swap3\n      tag_134\n      swap1\n      tag_135\n      jump\t// in\n        /* \"OrganManagement.sol\":2347:2700  function creatRequestDonar(... */\n    tag_86:\n        /* \"OrganManagement.sol\":2534:2641  donor(msg.sender,hospitalid,organ,... */\n      0x40\n      dup1\n      mload\n      0xe0\n      dup2\n      add\n      dup3\n      mstore\n        /* \"OrganManagement.sol\":2540:2550  msg.sender */\n      caller\n        /* \"OrganManagement.sol\":2534:2641  donor(msg.sender,hospitalid,organ,... */\n      dup1\n      dup3\n      mstore\n      sub(shl(0xa0, 0x01), 0x01)\n      dup7\n      dup2\n      and\n      0x20\n      dup1\n      dup6\n      add\n      swap2\n      dup3\n      mstore\n      dup5\n      dup7\n      add\n      dup9\n      dup2\n      mstore\n      0x60\n      dup7\n      add\n      dup9\n      swap1\n      mstore\n      0x00\n      0x80\n      dup8\n      add\n      dup2\n      swap1\n      mstore\n      0x01\n      0xa0\n      dup9\n      add\n      dup2\n      swap1\n      mstore\n      0xc0\n      dup9\n      add\n      dup3\n      swap1\n      mstore\n        /* \"OrganManagement.sol\":2515:2533  Donors[msg.sender] */\n      swap6\n      dup2\n      mstore\n        /* \"OrganManagement.sol\":2515:2521  Donors */\n      0x06\n        /* \"OrganManagement.sol\":2515:2533  Donors[msg.sender] */\n      swap1\n      swap3\n      mstore\n      swap6\n      swap1\n      keccak256\n        /* \"OrganManagement.sol\":2515:2641  Donors[msg.sender]=donor(msg.sender,hospitalid,organ,... */\n      dup5\n      mload\n      dup2\n      sload\n      swap1\n      dup5\n      and\n      not(sub(shl(0xa0, 0x01), 0x01))\n      swap2\n      dup3\n      and\n      or\n      dup3\n      sstore\n      swap2\n      mload\n      swap4\n      dup2\n      add\n      dup1\n      sload\n      swap5\n      swap1\n      swap4\n      and\n      swap4\n      swap1\n      swap2\n      and\n      swap3\n      swap1\n      swap3\n      or\n      swap1\n      sstore\n      swap2\n      mload\n        /* \"OrganManagement.sol\":2534:2641  donor(msg.sender,hospitalid,organ,... */\n      swap1\n      swap2\n        /* \"OrganManagement.sol\":2515:2533  Donors[msg.sender] */\n      swap1\n        /* \"OrganManagement.sol\":2515:2641  Donors[msg.sender]=donor(msg.sender,hospitalid,organ,... */\n      0x02\n      dup3\n      add\n      swap1\n      tag_192\n      swap1\n      dup3\n      tag_132\n      jump\t// in\n    tag_192:\n      pop\n      0x60\n      dup3\n      add\n      mload\n      0x03\n      dup3\n      add\n      swap1\n      tag_193\n      swap1\n      dup3\n      tag_132\n      jump\t// in\n    tag_193:\n      pop\n      0x80\n      dup3\n      add\n      mload\n      0x04\n      swap1\n      swap2\n      add\n      dup1\n      sload\n      0xa0\n      dup5\n      add\n      mload\n      0xc0\n      swap1\n      swap5\n      add\n      mload\n      iszero\n      iszero\n      0x010000\n      mul\n      not(0xff0000)\n      swap5\n      iszero\n      iszero\n      0x0100\n      mul\n      not(0xff00)\n      swap5\n      iszero\n      iszero\n      swap5\n      swap1\n      swap5\n      and\n      not(0xffff)\n      swap1\n      swap3\n      and\n      swap2\n      swap1\n      swap2\n      or\n      swap3\n      swap1\n      swap3\n      or\n      swap3\n      swap1\n      swap3\n      and\n      or\n      swap1\n      sstore\n      pop\n      pop\n      0x01\n        /* \"OrganManagement.sol\":2655:2680  donorarr.push(msg.sender) */\n      dup1\n      sload\n      dup1\n      dup3\n      add\n      dup3\n      sstore\n        /* \"OrganManagement.sol\":2515:2641  Donors[msg.sender]=donor(msg.sender,hospitalid,organ,... */\n      0x00\n        /* \"OrganManagement.sol\":2655:2680  donorarr.push(msg.sender) */\n      swap2\n      swap1\n      swap2\n      mstore\n      0xb10e2d527612073b26eecdfd717e6a320cf44b4afac2b0732d9fcbe2b7fa0cf6\n      add\n      dup1\n      sload\n      not(sub(shl(0xa0, 0x01), 0x01))\n      and\n        /* \"OrganManagement.sol\":2669:2679  msg.sender */\n      caller\n        /* \"OrganManagement.sol\":2655:2680  donorarr.push(msg.sender) */\n      or\n      swap1\n      sstore\n      pop\n        /* \"OrganManagement.sol\":2347:2700  function creatRequestDonar(... */\n      jump\t// out\n        /* \"OrganManagement.sol\":1218:1246  address[] public hospitalarr */\n    tag_90:\n      0x03\n      dup2\n      dup2\n      sload\n      dup2\n      lt\n      tag_124\n      jumpi\n      0x00\n      dup1\n      revert\n        /* \"OrganManagement.sol\":4717:4871  function addrecipient(... */\n    tag_94:\n        /* \"OrganManagement.sol\":2178:2188  msg.sender */\n      caller\n        /* \"OrganManagement.sol\":2169:2189  hospital[msg.sender] */\n      0x00\n      swap1\n      dup2\n      mstore\n        /* \"OrganManagement.sol\":2169:2177  hospital */\n      0x08\n        /* \"OrganManagement.sol\":2169:2189  hospital[msg.sender] */\n      0x20\n      mstore\n      0x40\n      swap1\n      keccak256\n        /* \"OrganManagement.sol\":2169:2195  hospital[msg.sender].added */\n      0x02\n      add\n      sload\n      0xff\n      and\n        /* \"OrganManagement.sol\":2169:2201  hospital[msg.sender].added==true */\n      iszero\n      iszero\n        /* \"OrganManagement.sol\":2169:2195  hospital[msg.sender].added */\n      0x01\n        /* \"OrganManagement.sol\":2169:2201  hospital[msg.sender].added==true */\n      eq\n        /* \"OrganManagement.sol\":2161:2202  require(hospital[msg.sender].added==true) */\n      tag_198\n      jumpi\n      0x00\n      dup1\n      revert\n    tag_198:\n      sub(shl(0xa0, 0x01), 0x01)\n        /* \"OrganManagement.sol\":4806:4827  Recipients[patientid] */\n      and\n      0x00\n      swap1\n      dup2\n      mstore\n        /* \"OrganManagement.sol\":4806:4816  Recipients */\n      0x05\n        /* \"OrganManagement.sol\":4806:4827  Recipients[patientid] */\n      0x20\n      mstore\n      0x40\n      swap1\n      keccak256\n        /* \"OrganManagement.sol\":4806:4833  Recipients[patientid].added */\n      0x04\n      add\n        /* \"OrganManagement.sol\":4806:4838  Recipients[patientid].added=true */\n      dup1\n      sload\n      not(0xff0000)\n      and\n      0x010000\n      or\n      swap1\n      sstore\n        /* \"OrganManagement.sol\":4717:4871  function addrecipient(... */\n      jump\t// out\n        /* \"OrganManagement.sol\":982:1011  address[] public recipientarr */\n    tag_102:\n      0x00\n      dup2\n      dup2\n      sload\n      dup2\n      lt\n      tag_124\n      jumpi\n      0x00\n      dup1\n      revert\n        /* \"OrganManagement.sol\":4374:4712  function creatRequestRecipient(... */\n    tag_107:\n        /* \"OrganManagement.sol\":4543:4658  recipient(msg.sender,hospitalid,... */\n      0x40\n      dup1\n      mload\n      0xe0\n      dup2\n      add\n      dup3\n      mstore\n        /* \"OrganManagement.sol\":4553:4563  msg.sender */\n      caller\n        /* \"OrganManagement.sol\":4543:4658  recipient(msg.sender,hospitalid,... */\n      dup1\n      dup3\n      mstore\n      sub(shl(0xa0, 0x01), 0x01)\n      dup7\n      dup2\n      and\n      0x20\n      dup1\n      dup6\n      add\n      swap2\n      dup3\n      mstore\n      dup5\n      dup7\n      add\n      dup9\n      dup2\n      mstore\n      0x60\n      dup7\n      add\n      dup9\n      swap1\n      mstore\n      0x00\n      0x80\n      dup8\n      add\n      dup2\n      swap1\n      mstore\n      0x01\n      0xa0\n      dup9\n      add\n      dup2\n      swap1\n      mstore\n      0xc0\n      dup9\n      add\n      dup3\n      swap1\n      mstore\n        /* \"OrganManagement.sol\":4518:4540  Recipients[msg.sender] */\n      swap6\n      dup2\n      mstore\n        /* \"OrganManagement.sol\":4518:4528  Recipients */\n      0x05\n        /* \"OrganManagement.sol\":4518:4540  Recipients[msg.sender] */\n      swap1\n      swap3\n      mstore\n      swap6\n      swap1\n      keccak256\n        /* \"OrganManagement.sol\":4518:4658  Recipients[msg.sender] = recipient(msg.sender,hospitalid,... */\n      dup5\n      mload\n      dup2\n      sload\n      swap1\n      dup5\n      and\n      not(sub(shl(0xa0, 0x01), 0x01))\n      swap2\n      dup3\n      and\n      or\n      dup3\n      sstore\n      swap2\n      mload\n      swap4\n      dup2\n      add\n      dup1\n      sload\n      swap5\n      swap1\n      swap4\n      and\n      swap4\n      swap1\n      swap2\n      and\n      swap3\n      swap1\n      swap3\n      or\n      swap1\n      sstore\n      swap2\n      mload\n        /* \"OrganManagement.sol\":4543:4658  recipient(msg.sender,hospitalid,... */\n      swap1\n      swap2\n        /* \"OrganManagement.sol\":4518:4540  Recipients[msg.sender] */\n      swap1\n        /* \"OrganManagement.sol\":4518:4658  Recipients[msg.sender] = recipient(msg.sender,hospitalid,... */\n      0x02\n      dup3\n      add\n      swap1\n      tag_204\n      swap1\n      dup3\n      tag_132\n      jump\t// in\n    tag_204:\n      pop\n      0x60\n      dup3\n      add\n      mload\n      0x03\n      dup3\n      add\n      swap1\n      tag_205\n      swap1\n      dup3\n      tag_132\n      jump\t// in\n    tag_205:\n      pop\n      0x80\n      dup3\n      add\n      mload\n      0x04\n      swap1\n      swap2\n      add\n      dup1\n      sload\n      0xa0\n      dup5\n      add\n      mload\n      0xc0\n      swap1\n      swap5\n      add\n      mload\n      iszero\n      iszero\n      0x010000\n      mul\n      not(0xff0000)\n      swap5\n      iszero\n      iszero\n      0x0100\n      mul\n      not(0xff00)\n      swap5\n      iszero\n      iszero\n      swap5\n      swap1\n      swap5\n      and\n      not(0xffff)\n      swap1\n      swap3\n      and\n      swap2\n      swap1\n      swap2\n      or\n      swap3\n      swap1\n      swap3\n      or\n      swap3\n      swap1\n      swap3\n      and\n      or\n      swap1\n      sstore\n      pop\n      pop\n      0x00\n        /* \"OrganManagement.sol\":4672:4701  recipientarr.push(msg.sender) */\n      dup1\n      sload\n        /* \"OrganManagement.sol\":4518:4658  Recipients[msg.sender] = recipient(msg.sender,hospitalid,... */\n      0x01\n        /* \"OrganManagement.sol\":4672:4701  recipientarr.push(msg.sender) */\n      dup2\n      add\n      dup3\n      sstore\n      swap1\n      dup1\n      mstore\n      0x290decd9548b62a8d60345a988386fc84ba6bc95484008f6362f93160ef3e563\n      add\n      dup1\n      sload\n      not(sub(shl(0xa0, 0x01), 0x01))\n      and\n        /* \"OrganManagement.sol\":4690:4700  msg.sender */\n      caller\n        /* \"OrganManagement.sol\":4672:4701  recipientarr.push(msg.sender) */\n      or\n      swap1\n      sstore\n      pop\n        /* \"OrganManagement.sol\":4374:4712  function creatRequestRecipient(... */\n      jump\t// out\n        /* \"OrganManagement.sol\":1137:1167  address[] public transplantarr */\n    tag_115:\n      0x02\n      dup2\n      dup2\n      sload\n      dup2\n      lt\n      tag_124\n      jumpi\n      0x00\n      dup1\n      revert\n        /* \"OrganManagement.sol\":2710:2858  function addDonar(address donori) public payable restricted{... */\n    tag_119:\n        /* \"OrganManagement.sol\":2178:2188  msg.sender */\n      caller\n        /* \"OrganManagement.sol\":2169:2189  hospital[msg.sender] */\n      0x00\n      swap1\n      dup2\n      mstore\n        /* \"OrganManagement.sol\":2169:2177  hospital */\n      0x08\n        /* \"OrganManagement.sol\":2169:2189  hospital[msg.sender] */\n      0x20\n      mstore\n      0x40\n      swap1\n      keccak256\n        /* \"OrganManagement.sol\":2169:2195  hospital[msg.sender].added */\n      0x02\n      add\n      sload\n      0xff\n      and\n        /* \"OrganManagement.sol\":2169:2201  hospital[msg.sender].added==true */\n      iszero\n      iszero\n        /* \"OrganManagement.sol\":2169:2195  hospital[msg.sender].added */\n      0x01\n        /* \"OrganManagement.sol\":2169:2201  hospital[msg.sender].added==true */\n      eq\n        /* \"OrganManagement.sol\":2161:2202  require(hospital[msg.sender].added==true) */\n      tag_211\n      jumpi\n      0x00\n      dup1\n      revert\n    tag_211:\n      sub(shl(0xa0, 0x01), 0x01)\n        /* \"OrganManagement.sol\":2796:2810  Donors[donori] */\n      and\n      0x00\n      swap1\n      dup2\n      mstore\n        /* \"OrganManagement.sol\":2796:2802  Donors */\n      0x06\n        /* \"OrganManagement.sol\":2796:2810  Donors[donori] */\n      0x20\n      mstore\n      0x40\n      swap1\n      keccak256\n        /* \"OrganManagement.sol\":2796:2816  Donors[donori].added */\n      0x04\n      add\n        /* \"OrganManagement.sol\":2796:2821  Donors[donori].added=true */\n      dup1\n      sload\n      not(0xff0000)\n      and\n      0x010000\n      or\n      swap1\n      sstore\n        /* \"OrganManagement.sol\":2710:2858  function addDonar(address donori) public payable restricted{... */\n      jump\t// out\n        /* \"#utility.yul\":14:194   */\n    tag_32:\n        /* \"#utility.yul\":73:79   */\n      0x00\n        /* \"#utility.yul\":126:128   */\n      0x20\n        /* \"#utility.yul\":114:123   */\n      dup3\n        /* \"#utility.yul\":105:112   */\n      dup5\n        /* \"#utility.yul\":101:124   */\n      sub\n        /* \"#utility.yul\":97:129   */\n      slt\n        /* \"#utility.yul\":94:146   */\n      iszero\n      tag_222\n      jumpi\n        /* \"#utility.yul\":142:143   */\n      0x00\n        /* \"#utility.yul\":139:140   */\n      dup1\n        /* \"#utility.yul\":132:144   */\n      revert\n        /* \"#utility.yul\":94:146   */\n    tag_222:\n      pop\n        /* \"#utility.yul\":165:188   */\n      calldataload\n      swap2\n        /* \"#utility.yul\":14:194   */\n      swap1\n      pop\n      jump\t// out\n        /* \"#utility.yul\":430:626   */\n    tag_213:\n        /* \"#utility.yul\":498:518   */\n      dup1\n      calldataload\n      sub(shl(0xa0, 0x01), 0x01)\n        /* \"#utility.yul\":547:601   */\n      dup2\n      and\n        /* \"#utility.yul\":537:602   */\n      dup2\n      eq\n        /* \"#utility.yul\":527:620   */\n      tag_225\n      jumpi\n        /* \"#utility.yul\":616:617   */\n      0x00\n        /* \"#utility.yul\":613:614   */\n      dup1\n        /* \"#utility.yul\":606:618   */\n      revert\n        /* \"#utility.yul\":527:620   */\n    tag_225:\n        /* \"#utility.yul\":430:626   */\n      swap2\n      swap1\n      pop\n      jump\t// out\n        /* \"#utility.yul\":631:817   */\n    tag_38:\n        /* \"#utility.yul\":690:696   */\n      0x00\n        /* \"#utility.yul\":743:745   */\n      0x20\n        /* \"#utility.yul\":731:740   */\n      dup3\n        /* \"#utility.yul\":722:729   */\n      dup5\n        /* \"#utility.yul\":718:741   */\n      sub\n        /* \"#utility.yul\":714:746   */\n      slt\n        /* \"#utility.yul\":711:763   */\n      iszero\n      tag_227\n      jumpi\n        /* \"#utility.yul\":759:760   */\n      0x00\n        /* \"#utility.yul\":756:757   */\n      dup1\n        /* \"#utility.yul\":749:761   */\n      revert\n        /* \"#utility.yul\":711:763   */\n    tag_227:\n        /* \"#utility.yul\":782:811   */\n      tag_228\n        /* \"#utility.yul\":801:810   */\n      dup3\n        /* \"#utility.yul\":782:811   */\n      tag_213\n      jump\t// in\n    tag_228:\n        /* \"#utility.yul\":772:811   */\n      swap4\n        /* \"#utility.yul\":631:817   */\n      swap3\n      pop\n      pop\n      pop\n      jump\t// out\n        /* \"#utility.yul\":1498:1625   */\n    tag_214:\n        /* \"#utility.yul\":1559:1569   */\n      0x4e487b71\n        /* \"#utility.yul\":1554:1557   */\n      0xe0\n        /* \"#utility.yul\":1550:1570   */\n      shl\n        /* \"#utility.yul\":1547:1548   */\n      0x00\n        /* \"#utility.yul\":1540:1571   */\n      mstore\n        /* \"#utility.yul\":1590:1594   */\n      0x41\n        /* \"#utility.yul\":1587:1588   */\n      0x04\n        /* \"#utility.yul\":1580:1595   */\n      mstore\n        /* \"#utility.yul\":1614:1618   */\n      0x24\n        /* \"#utility.yul\":1611:1612   */\n      0x00\n        /* \"#utility.yul\":1604:1619   */\n      revert\n        /* \"#utility.yul\":1630:2349   */\n    tag_215:\n        /* \"#utility.yul\":1673:1678   */\n      0x00\n        /* \"#utility.yul\":1726:1729   */\n      dup3\n        /* \"#utility.yul\":1719:1723   */\n      0x1f\n        /* \"#utility.yul\":1711:1717   */\n      dup4\n        /* \"#utility.yul\":1707:1724   */\n      add\n        /* \"#utility.yul\":1703:1730   */\n      slt\n        /* \"#utility.yul\":1693:1748   */\n      tag_233\n      jumpi\n        /* \"#utility.yul\":1744:1745   */\n      0x00\n        /* \"#utility.yul\":1741:1742   */\n      dup1\n        /* \"#utility.yul\":1734:1746   */\n      revert\n        /* \"#utility.yul\":1693:1748   */\n    tag_233:\n        /* \"#utility.yul\":1780:1786   */\n      dup2\n        /* \"#utility.yul\":1767:1787   */\n      calldataload\n        /* \"#utility.yul\":1806:1824   */\n      0xffffffffffffffff\n        /* \"#utility.yul\":1843:1845   */\n      dup1\n        /* \"#utility.yul\":1839:1841   */\n      dup3\n        /* \"#utility.yul\":1836:1846   */\n      gt\n        /* \"#utility.yul\":1833:1869   */\n      iszero\n      tag_235\n      jumpi\n        /* \"#utility.yul\":1849:1867   */\n      tag_235\n      tag_214\n      jump\t// in\n    tag_235:\n        /* \"#utility.yul\":1924:1926   */\n      0x40\n        /* \"#utility.yul\":1918:1927   */\n      mload\n        /* \"#utility.yul\":1892:1894   */\n      0x1f\n        /* \"#utility.yul\":1978:1991   */\n      dup4\n      add\n      not(0x1f)\n        /* \"#utility.yul\":1974:1996   */\n      swap1\n      dup2\n      and\n        /* \"#utility.yul\":1998:2000   */\n      0x3f\n        /* \"#utility.yul\":1970:2001   */\n      add\n        /* \"#utility.yul\":1966:2006   */\n      and\n        /* \"#utility.yul\":1954:2007   */\n      dup2\n      add\n      swap1\n        /* \"#utility.yul\":2022:2040   */\n      dup3\n      dup3\n      gt\n        /* \"#utility.yul\":2042:2064   */\n      dup2\n      dup4\n      lt\n        /* \"#utility.yul\":2019:2065   */\n      or\n        /* \"#utility.yul\":2016:2088   */\n      iszero\n      tag_237\n      jumpi\n        /* \"#utility.yul\":2068:2086   */\n      tag_237\n      tag_214\n      jump\t// in\n    tag_237:\n        /* \"#utility.yul\":2108:2118   */\n      dup2\n        /* \"#utility.yul\":2104:2106   */\n      0x40\n        /* \"#utility.yul\":2097:2119   */\n      mstore\n        /* \"#utility.yul\":2143:2145   */\n      dup4\n        /* \"#utility.yul\":2135:2141   */\n      dup2\n        /* \"#utility.yul\":2128:2146   */\n      mstore\n        /* \"#utility.yul\":2189:2192   */\n      dup7\n        /* \"#utility.yul\":2182:2186   */\n      0x20\n        /* \"#utility.yul\":2177:2179   */\n      dup6\n        /* \"#utility.yul\":2169:2175   */\n      dup9\n        /* \"#utility.yul\":2165:2180   */\n      add\n        /* \"#utility.yul\":2161:2187   */\n      add\n        /* \"#utility.yul\":2158:2193   */\n      gt\n        /* \"#utility.yul\":2155:2210   */\n      iszero\n      tag_238\n      jumpi\n        /* \"#utility.yul\":2206:2207   */\n      0x00\n        /* \"#utility.yul\":2203:2204   */\n      dup1\n        /* \"#utility.yul\":2196:2208   */\n      revert\n        /* \"#utility.yul\":2155:2210   */\n    tag_238:\n        /* \"#utility.yul\":2270:2272   */\n      dup4\n        /* \"#utility.yul\":2263:2267   */\n      0x20\n        /* \"#utility.yul\":2255:2261   */\n      dup8\n        /* \"#utility.yul\":2251:2268   */\n      add\n        /* \"#utility.yul\":2244:2248   */\n      0x20\n        /* \"#utility.yul\":2236:2242   */\n      dup4\n        /* \"#utility.yul\":2232:2249   */\n      add\n        /* \"#utility.yul\":2219:2273   */\n      calldatacopy\n        /* \"#utility.yul\":2317:2318   */\n      0x00\n        /* \"#utility.yul\":2310:2314   */\n      0x20\n        /* \"#utility.yul\":2305:2307   */\n      dup6\n        /* \"#utility.yul\":2297:2303   */\n      dup4\n        /* \"#utility.yul\":2293:2308   */\n      add\n        /* \"#utility.yul\":2289:2315   */\n      add\n        /* \"#utility.yul\":2282:2319   */\n      mstore\n        /* \"#utility.yul\":2337:2343   */\n      dup1\n        /* \"#utility.yul\":2328:2343   */\n      swap5\n      pop\n      pop\n      pop\n      pop\n      pop\n        /* \"#utility.yul\":1630:2349   */\n      swap3\n      swap2\n      pop\n      pop\n      jump\t// out\n        /* \"#utility.yul\":2354:2676   */\n    tag_54:\n        /* \"#utility.yul\":2423:2429   */\n      0x00\n        /* \"#utility.yul\":2476:2478   */\n      0x20\n        /* \"#utility.yul\":2464:2473   */\n      dup3\n        /* \"#utility.yul\":2455:2462   */\n      dup5\n        /* \"#utility.yul\":2451:2474   */\n      sub\n        /* \"#utility.yul\":2447:2479   */\n      slt\n        /* \"#utility.yul\":2444:2496   */\n      iszero\n      tag_240\n      jumpi\n        /* \"#utility.yul\":2492:2493   */\n      0x00\n        /* \"#utility.yul\":2489:2490   */\n      dup1\n        /* \"#utility.yul\":2482:2494   */\n      revert\n        /* \"#utility.yul\":2444:2496   */\n    tag_240:\n        /* \"#utility.yul\":2532:2541   */\n      dup2\n        /* \"#utility.yul\":2519:2542   */\n      calldataload\n        /* \"#utility.yul\":2565:2583   */\n      0xffffffffffffffff\n        /* \"#utility.yul\":2557:2563   */\n      dup2\n        /* \"#utility.yul\":2554:2584   */\n      gt\n        /* \"#utility.yul\":2551:2601   */\n      iszero\n      tag_241\n      jumpi\n        /* \"#utility.yul\":2597:2598   */\n      0x00\n        /* \"#utility.yul\":2594:2595   */\n      dup1\n        /* \"#utility.yul\":2587:2599   */\n      revert\n        /* \"#utility.yul\":2551:2601   */\n    tag_241:\n        /* \"#utility.yul\":2620:2670   */\n      tag_242\n        /* \"#utility.yul\":2662:2669   */\n      dup5\n        /* \"#utility.yul\":2653:2659   */\n      dup3\n        /* \"#utility.yul\":2642:2651   */\n      dup6\n        /* \"#utility.yul\":2638:2660   */\n      add\n        /* \"#utility.yul\":2620:2670   */\n      tag_215\n      jump\t// in\n    tag_242:\n        /* \"#utility.yul\":2610:2670   */\n      swap5\n        /* \"#utility.yul\":2354:2676   */\n      swap4\n      pop\n      pop\n      pop\n      pop\n      jump\t// out\n        /* \"#utility.yul\":2681:3104   */\n    tag_216:\n        /* \"#utility.yul\":2723:2726   */\n      0x00\n        /* \"#utility.yul\":2761:2766   */\n      dup2\n        /* \"#utility.yul\":2755:2767   */\n      mload\n        /* \"#utility.yul\":2788:2794   */\n      dup1\n        /* \"#utility.yul\":2783:2786   */\n      dup5\n        /* \"#utility.yul\":2776:2795   */\n      mstore\n        /* \"#utility.yul\":2813:2814   */\n      0x00\n        /* \"#utility.yul\":2823:2985   */\n    tag_244:\n        /* \"#utility.yul\":2837:2843   */\n      dup2\n        /* \"#utility.yul\":2834:2835   */\n      dup2\n        /* \"#utility.yul\":2831:2844   */\n      lt\n        /* \"#utility.yul\":2823:2985   */\n      iszero\n      tag_246\n      jumpi\n        /* \"#utility.yul\":2899:2903   */\n      0x20\n        /* \"#utility.yul\":2955:2968   */\n      dup2\n      dup6\n      add\n        /* \"#utility.yul\":2951:2973   */\n      dup2\n      add\n        /* \"#utility.yul\":2945:2974   */\n      mload\n        /* \"#utility.yul\":2927:2938   */\n      dup7\n      dup4\n      add\n        /* \"#utility.yul\":2923:2943   */\n      dup3\n      add\n        /* \"#utility.yul\":2916:2975   */\n      mstore\n        /* \"#utility.yul\":2852:2864   */\n      add\n        /* \"#utility.yul\":2823:2985   */\n      jump(tag_244)\n    tag_246:\n        /* \"#utility.yul\":2827:2830   */\n      pop\n        /* \"#utility.yul\":3030:3031   */\n      0x00\n        /* \"#utility.yul\":3023:3027   */\n      0x20\n        /* \"#utility.yul\":3014:3020   */\n      dup3\n        /* \"#utility.yul\":3009:3012   */\n      dup7\n        /* \"#utility.yul\":3005:3021   */\n      add\n        /* \"#utility.yul\":3001:3028   */\n      add\n        /* \"#utility.yul\":2994:3032   */\n      mstore\n        /* \"#utility.yul\":3093:3097   */\n      0x20\n        /* \"#utility.yul\":3086:3088   */\n      0x1f\n        /* \"#utility.yul\":3082:3089   */\n      not\n        /* \"#utility.yul\":3077:3079   */\n      0x1f\n        /* \"#utility.yul\":3069:3075   */\n      dup4\n        /* \"#utility.yul\":3065:3080   */\n      add\n        /* \"#utility.yul\":3061:3090   */\n      and\n        /* \"#utility.yul\":3056:3059   */\n      dup6\n        /* \"#utility.yul\":3052:3091   */\n      add\n        /* \"#utility.yul\":3048:3098   */\n      add\n        /* \"#utility.yul\":3041:3098   */\n      swap2\n      pop\n      pop\n        /* \"#utility.yul\":2681:3104   */\n      swap3\n      swap2\n      pop\n      pop\n      jump\t// out\n        /* \"#utility.yul\":3109:3961   */\n    tag_61:\n        /* \"#utility.yul\":3391:3395   */\n      0x00\n      sub(shl(0xa0, 0x01), 0x01)\n        /* \"#utility.yul\":3501:3503   */\n      dup1\n        /* \"#utility.yul\":3493:3499   */\n      dup11\n        /* \"#utility.yul\":3489:3504   */\n      and\n        /* \"#utility.yul\":3478:3487   */\n      dup4\n        /* \"#utility.yul\":3471:3505   */\n      mstore\n        /* \"#utility.yul\":3553:3555   */\n      dup1\n        /* \"#utility.yul\":3545:3551   */\n      dup10\n        /* \"#utility.yul\":3541:3556   */\n      and\n        /* \"#utility.yul\":3536:3538   */\n      0x20\n        /* \"#utility.yul\":3525:3534   */\n      dup5\n        /* \"#utility.yul\":3521:3539   */\n      add\n        /* \"#utility.yul\":3514:3557   */\n      mstore\n      pop\n        /* \"#utility.yul\":3593:3596   */\n      0xe0\n        /* \"#utility.yul\":3588:3590   */\n      0x40\n        /* \"#utility.yul\":3577:3586   */\n      dup4\n        /* \"#utility.yul\":3573:3591   */\n      add\n        /* \"#utility.yul\":3566:3597   */\n      mstore\n        /* \"#utility.yul\":3620:3666   */\n      tag_248\n        /* \"#utility.yul\":3661:3664   */\n      0xe0\n        /* \"#utility.yul\":3650:3659   */\n      dup4\n        /* \"#utility.yul\":3646:3665   */\n      add\n        /* \"#utility.yul\":3638:3644   */\n      dup9\n        /* \"#utility.yul\":3620:3666   */\n      tag_216\n      jump\t// in\n    tag_248:\n        /* \"#utility.yul\":3714:3723   */\n      dup3\n        /* \"#utility.yul\":3706:3712   */\n      dup2\n        /* \"#utility.yul\":3702:3724   */\n      sub\n        /* \"#utility.yul\":3697:3699   */\n      0x60\n        /* \"#utility.yul\":3686:3695   */\n      dup5\n        /* \"#utility.yul\":3682:3700   */\n      add\n        /* \"#utility.yul\":3675:3725   */\n      mstore\n        /* \"#utility.yul\":3742:3775   */\n      tag_249\n        /* \"#utility.yul\":3768:3774   */\n      dup2\n        /* \"#utility.yul\":3760:3766   */\n      dup9\n        /* \"#utility.yul\":3742:3775   */\n      tag_216\n      jump\t// in\n    tag_249:\n        /* \"#utility.yul\":3819:3833   */\n      swap6\n      iszero\n        /* \"#utility.yul\":3812:3834   */\n      iszero\n        /* \"#utility.yul\":3806:3809   */\n      0x80\n        /* \"#utility.yul\":3791:3810   */\n      dup5\n      add\n        /* \"#utility.yul\":3784:3835   */\n      mstore\n      pop\n      pop\n        /* \"#utility.yul\":3879:3893   */\n      swap2\n      iszero\n        /* \"#utility.yul\":3872:3894   */\n      iszero\n        /* \"#utility.yul\":3866:3869   */\n      0xa0\n        /* \"#utility.yul\":3851:3870   */\n      dup4\n      add\n        /* \"#utility.yul\":3844:3895   */\n      mstore\n        /* \"#utility.yul\":3939:3953   */\n      iszero\n        /* \"#utility.yul\":3932:3954   */\n      iszero\n        /* \"#utility.yul\":3926:3929   */\n      0xc0\n        /* \"#utility.yul\":3911:3930   */\n      swap1\n      swap2\n      add\n        /* \"#utility.yul\":3904:3955   */\n      mstore\n        /* \"#utility.yul\":3734:3775   */\n      swap5\n        /* \"#utility.yul\":3109:3961   */\n      swap4\n      pop\n      pop\n      pop\n      pop\n      jump\t// out\n        /* \"#utility.yul\":3966:4387   */\n    tag_72:\n      sub(shl(0xa0, 0x01), 0x01)\n        /* \"#utility.yul\":4169:4175   */\n      dup5\n        /* \"#utility.yul\":4165:4220   */\n      and\n        /* \"#utility.yul\":4154:4163   */\n      dup2\n        /* \"#utility.yul\":4147:4221   */\n      mstore\n        /* \"#utility.yul\":4257:4259   */\n      0x60\n        /* \"#utility.yul\":4252:4254   */\n      0x20\n        /* \"#utility.yul\":4241:4250   */\n      dup3\n        /* \"#utility.yul\":4237:4255   */\n      add\n        /* \"#utility.yul\":4230:4260   */\n      mstore\n        /* \"#utility.yul\":4128:4132   */\n      0x00\n        /* \"#utility.yul\":4277:4322   */\n      tag_251\n        /* \"#utility.yul\":4318:4320   */\n      0x60\n        /* \"#utility.yul\":4307:4316   */\n      dup4\n        /* \"#utility.yul\":4303:4321   */\n      add\n        /* \"#utility.yul\":4295:4301   */\n      dup6\n        /* \"#utility.yul\":4277:4322   */\n      tag_216\n      jump\t// in\n    tag_251:\n        /* \"#utility.yul\":4269:4322   */\n      swap1\n      pop\n        /* \"#utility.yul\":4372:4378   */\n      dup3\n        /* \"#utility.yul\":4365:4379   */\n      iszero\n        /* \"#utility.yul\":4358:4380   */\n      iszero\n        /* \"#utility.yul\":4353:4355   */\n      0x40\n        /* \"#utility.yul\":4342:4351   */\n      dup4\n        /* \"#utility.yul\":4338:4356   */\n      add\n        /* \"#utility.yul\":4331:4381   */\n      mstore\n        /* \"#utility.yul\":3966:4387   */\n      swap5\n      swap4\n      pop\n      pop\n      pop\n      pop\n      jump\t// out\n        /* \"#utility.yul\":4392:5009   */\n    tag_85:\n        /* \"#utility.yul\":4489:4495   */\n      0x00\n        /* \"#utility.yul\":4497:4503   */\n      dup1\n        /* \"#utility.yul\":4505:4511   */\n      0x00\n        /* \"#utility.yul\":4558:4560   */\n      0x60\n        /* \"#utility.yul\":4546:4555   */\n      dup5\n        /* \"#utility.yul\":4537:4544   */\n      dup7\n        /* \"#utility.yul\":4533:4556   */\n      sub\n        /* \"#utility.yul\":4529:4561   */\n      slt\n        /* \"#utility.yul\":4526:4578   */\n      iszero\n      tag_253\n      jumpi\n        /* \"#utility.yul\":4574:4575   */\n      0x00\n        /* \"#utility.yul\":4571:4572   */\n      dup1\n        /* \"#utility.yul\":4564:4576   */\n      revert\n        /* \"#utility.yul\":4526:4578   */\n    tag_253:\n        /* \"#utility.yul\":4597:4626   */\n      tag_254\n        /* \"#utility.yul\":4616:4625   */\n      dup5\n        /* \"#utility.yul\":4597:4626   */\n      tag_213\n      jump\t// in\n    tag_254:\n        /* \"#utility.yul\":4587:4626   */\n      swap3\n      pop\n        /* \"#utility.yul\":4677:4679   */\n      0x20\n        /* \"#utility.yul\":4666:4675   */\n      dup5\n        /* \"#utility.yul\":4662:4680   */\n      add\n        /* \"#utility.yul\":4649:4681   */\n      calldataload\n        /* \"#utility.yul\":4700:4718   */\n      0xffffffffffffffff\n        /* \"#utility.yul\":4741:4743   */\n      dup1\n        /* \"#utility.yul\":4733:4739   */\n      dup3\n        /* \"#utility.yul\":4730:4744   */\n      gt\n        /* \"#utility.yul\":4727:4761   */\n      iszero\n      tag_255\n      jumpi\n        /* \"#utility.yul\":4757:4758   */\n      0x00\n        /* \"#utility.yul\":4754:4755   */\n      dup1\n        /* \"#utility.yul\":4747:4759   */\n      revert\n        /* \"#utility.yul\":4727:4761   */\n    tag_255:\n        /* \"#utility.yul\":4780:4830   */\n      tag_256\n        /* \"#utility.yul\":4822:4829   */\n      dup8\n        /* \"#utility.yul\":4813:4819   */\n      dup4\n        /* \"#utility.yul\":4802:4811   */\n      dup9\n        /* \"#utility.yul\":4798:4820   */\n      add\n        /* \"#utility.yul\":4780:4830   */\n      tag_215\n      jump\t// in\n    tag_256:\n        /* \"#utility.yul\":4770:4830   */\n      swap4\n      pop\n        /* \"#utility.yul\":4883:4885   */\n      0x40\n        /* \"#utility.yul\":4872:4881   */\n      dup7\n        /* \"#utility.yul\":4868:4886   */\n      add\n        /* \"#utility.yul\":4855:4887   */\n      calldataload\n        /* \"#utility.yul\":4839:4887   */\n      swap2\n      pop\n        /* \"#utility.yul\":4912:4914   */\n      dup1\n        /* \"#utility.yul\":4902:4910   */\n      dup3\n        /* \"#utility.yul\":4899:4915   */\n      gt\n        /* \"#utility.yul\":4896:4932   */\n      iszero\n      tag_257\n      jumpi\n        /* \"#utility.yul\":4928:4929   */\n      0x00\n        /* \"#utility.yul\":4925:4926   */\n      dup1\n        /* \"#utility.yul\":4918:4930   */\n      revert\n        /* \"#utility.yul\":4896:4932   */\n    tag_257:\n      pop\n        /* \"#utility.yul\":4951:5003   */\n      tag_258\n        /* \"#utility.yul\":4995:5002   */\n      dup7\n        /* \"#utility.yul\":4984:4992   */\n      dup3\n        /* \"#utility.yul\":4973:4982   */\n      dup8\n        /* \"#utility.yul\":4969:4993   */\n      add\n        /* \"#utility.yul\":4951:5003   */\n      tag_215\n      jump\t// in\n    tag_258:\n        /* \"#utility.yul\":4941:5003   */\n      swap2\n      pop\n      pop\n        /* \"#utility.yul\":4392:5009   */\n      swap3\n      pop\n      swap3\n      pop\n      swap3\n      jump\t// out\n        /* \"#utility.yul\":5014:5394   */\n    tag_135:\n        /* \"#utility.yul\":5093:5094   */\n      0x01\n        /* \"#utility.yul\":5089:5101   */\n      dup2\n      dup2\n      shr\n      swap1\n        /* \"#utility.yul\":5136:5148   */\n      dup3\n      and\n      dup1\n        /* \"#utility.yul\":5157:5218   */\n      tag_260\n      jumpi\n        /* \"#utility.yul\":5211:5215   */\n      0x7f\n        /* \"#utility.yul\":5203:5209   */\n      dup3\n        /* \"#utility.yul\":5199:5216   */\n      and\n        /* \"#utility.yul\":5189:5216   */\n      swap2\n      pop\n        /* \"#utility.yul\":5157:5218   */\n    tag_260:\n        /* \"#utility.yul\":5264:5266   */\n      0x20\n        /* \"#utility.yul\":5256:5262   */\n      dup3\n        /* \"#utility.yul\":5253:5267   */\n      lt\n        /* \"#utility.yul\":5233:5251   */\n      dup2\n        /* \"#utility.yul\":5230:5268   */\n      sub\n        /* \"#utility.yul\":5227:5388   */\n      tag_147\n      jumpi\n        /* \"#utility.yul\":5310:5320   */\n      0x4e487b71\n        /* \"#utility.yul\":5305:5308   */\n      0xe0\n        /* \"#utility.yul\":5301:5321   */\n      shl\n        /* \"#utility.yul\":5298:5299   */\n      0x00\n        /* \"#utility.yul\":5291:5322   */\n      mstore\n        /* \"#utility.yul\":5345:5349   */\n      0x22\n        /* \"#utility.yul\":5342:5343   */\n      0x04\n        /* \"#utility.yul\":5335:5350   */\n      mstore\n        /* \"#utility.yul\":5373:5377   */\n      0x24\n        /* \"#utility.yul\":5370:5371   */\n      0x00\n        /* \"#utility.yul\":5363:5378   */\n      revert\n        /* \"#utility.yul\":5525:6070   */\n    tag_218:\n        /* \"#utility.yul\":5627:5629   */\n      0x1f\n        /* \"#utility.yul\":5622:5625   */\n      dup3\n        /* \"#utility.yul\":5619:5630   */\n      gt\n        /* \"#utility.yul\":5616:6064   */\n      iszero\n      tag_264\n      jumpi\n        /* \"#utility.yul\":5663:5664   */\n      0x00\n        /* \"#utility.yul\":5688:5693   */\n      dup2\n        /* \"#utility.yul\":5684:5686   */\n      dup2\n        /* \"#utility.yul\":5677:5694   */\n      mstore\n        /* \"#utility.yul\":5733:5737   */\n      0x20\n        /* \"#utility.yul\":5729:5731   */\n      dup2\n        /* \"#utility.yul\":5719:5738   */\n      keccak256\n        /* \"#utility.yul\":5803:5805   */\n      0x1f\n        /* \"#utility.yul\":5791:5801   */\n      dup6\n        /* \"#utility.yul\":5787:5806   */\n      add\n        /* \"#utility.yul\":5784:5785   */\n      0x05\n        /* \"#utility.yul\":5780:5807   */\n      shr\n        /* \"#utility.yul\":5774:5778   */\n      dup2\n        /* \"#utility.yul\":5770:5808   */\n      add\n        /* \"#utility.yul\":5839:5843   */\n      0x20\n        /* \"#utility.yul\":5827:5837   */\n      dup7\n        /* \"#utility.yul\":5824:5844   */\n      lt\n        /* \"#utility.yul\":5821:5868   */\n      iszero\n      tag_265\n      jumpi\n      pop\n        /* \"#utility.yul\":5862:5866   */\n      dup1\n        /* \"#utility.yul\":5821:5868   */\n    tag_265:\n        /* \"#utility.yul\":5917:5919   */\n      0x1f\n        /* \"#utility.yul\":5912:5915   */\n      dup6\n        /* \"#utility.yul\":5908:5920   */\n      add\n        /* \"#utility.yul\":5905:5906   */\n      0x05\n        /* \"#utility.yul\":5901:5921   */\n      shr\n        /* \"#utility.yul\":5895:5899   */\n      dup3\n        /* \"#utility.yul\":5891:5922   */\n      add\n        /* \"#utility.yul\":5881:5922   */\n      swap2\n      pop\n        /* \"#utility.yul\":5972:6054   */\n    tag_266:\n        /* \"#utility.yul\":5990:5992   */\n      dup2\n        /* \"#utility.yul\":5983:5988   */\n      dup2\n        /* \"#utility.yul\":5980:5993   */\n      lt\n        /* \"#utility.yul\":5972:6054   */\n      iszero\n      tag_268\n      jumpi\n        /* \"#utility.yul\":6035:6052   */\n      dup3\n      dup2\n      sstore\n        /* \"#utility.yul\":6016:6017   */\n      0x01\n        /* \"#utility.yul\":6005:6018   */\n      add\n        /* \"#utility.yul\":5972:6054   */\n      jump(tag_266)\n    tag_268:\n        /* \"#utility.yul\":5976:5979   */\n      pop\n      pop\n      pop\n        /* \"#utility.yul\":5616:6064   */\n    tag_264:\n        /* \"#utility.yul\":5525:6070   */\n      pop\n      pop\n      pop\n      jump\t// out\n        /* \"#utility.yul\":6246:7598   */\n    tag_132:\n        /* \"#utility.yul\":6372:6375   */\n      dup2\n        /* \"#utility.yul\":6366:6376   */\n      mload\n        /* \"#utility.yul\":6399:6417   */\n      0xffffffffffffffff\n        /* \"#utility.yul\":6391:6397   */\n      dup2\n        /* \"#utility.yul\":6388:6418   */\n      gt\n        /* \"#utility.yul\":6385:6441   */\n      iszero\n      tag_272\n      jumpi\n        /* \"#utility.yul\":6421:6439   */\n      tag_272\n      tag_214\n      jump\t// in\n    tag_272:\n        /* \"#utility.yul\":6450:6547   */\n      tag_273\n        /* \"#utility.yul\":6540:6546   */\n      dup2\n        /* \"#utility.yul\":6500:6538   */\n      tag_274\n        /* \"#utility.yul\":6532:6536   */\n      dup5\n        /* \"#utility.yul\":6526:6537   */\n      sload\n        /* \"#utility.yul\":6500:6538   */\n      tag_135\n      jump\t// in\n    tag_274:\n        /* \"#utility.yul\":6494:6498   */\n      dup5\n        /* \"#utility.yul\":6450:6547   */\n      tag_218\n      jump\t// in\n    tag_273:\n        /* \"#utility.yul\":6602:6606   */\n      0x20\n      dup1\n        /* \"#utility.yul\":6666:6668   */\n      0x1f\n        /* \"#utility.yul\":6655:6669   */\n      dup4\n      gt\n        /* \"#utility.yul\":6683:6684   */\n      0x01\n        /* \"#utility.yul\":6678:7341   */\n      dup2\n      eq\n      tag_276\n      jumpi\n        /* \"#utility.yul\":7385:7386   */\n      0x00\n        /* \"#utility.yul\":7402:7408   */\n      dup5\n        /* \"#utility.yul\":7399:7488   */\n      iszero\n      tag_277\n      jumpi\n      pop\n        /* \"#utility.yul\":7454:7473   */\n      dup6\n      dup4\n      add\n        /* \"#utility.yul\":7448:7474   */\n      mload\n        /* \"#utility.yul\":7399:7488   */\n    tag_277:\n      not(0x00)\n        /* \"#utility.yul\":6203:6204   */\n      0x03\n        /* \"#utility.yul\":6199:6210   */\n      dup7\n      swap1\n      shl\n        /* \"#utility.yul\":6195:6219   */\n      shr\n        /* \"#utility.yul\":6191:6220   */\n      not\n        /* \"#utility.yul\":6181:6221   */\n      and\n        /* \"#utility.yul\":6227:6228   */\n      0x01\n        /* \"#utility.yul\":6223:6234   */\n      dup6\n      swap1\n      shl\n        /* \"#utility.yul\":6178:6235   */\n      or\n        /* \"#utility.yul\":7501:7582   */\n      dup6\n      sstore\n        /* \"#utility.yul\":6648:7592   */\n      jump(tag_268)\n        /* \"#utility.yul\":6678:7341   */\n    tag_276:\n        /* \"#utility.yul\":5472:5473   */\n      0x00\n        /* \"#utility.yul\":5465:5479   */\n      dup6\n      dup2\n      mstore\n        /* \"#utility.yul\":5509:5513   */\n      0x20\n        /* \"#utility.yul\":5496:5514   */\n      dup2\n      keccak256\n      not(0x1f)\n        /* \"#utility.yul\":6714:6734   */\n      dup7\n      and\n      swap2\n        /* \"#utility.yul\":6832:7068   */\n    tag_280:\n        /* \"#utility.yul\":6846:6853   */\n      dup3\n        /* \"#utility.yul\":6843:6844   */\n      dup2\n        /* \"#utility.yul\":6840:6854   */\n      lt\n        /* \"#utility.yul\":6832:7068   */\n      iszero\n      tag_282\n      jumpi\n        /* \"#utility.yul\":6935:6954   */\n      dup9\n      dup7\n      add\n        /* \"#utility.yul\":6929:6955   */\n      mload\n        /* \"#utility.yul\":6914:6956   */\n      dup3\n      sstore\n        /* \"#utility.yul\":7027:7054   */\n      swap5\n      dup5\n      add\n      swap5\n        /* \"#utility.yul\":6995:6996   */\n      0x01\n        /* \"#utility.yul\":6983:6997   */\n      swap1\n      swap2\n      add\n      swap1\n        /* \"#utility.yul\":6862:6881   */\n      dup5\n      add\n        /* \"#utility.yul\":6832:7068   */\n      jump(tag_280)\n    tag_282:\n        /* \"#utility.yul\":6836:6839   */\n      pop\n        /* \"#utility.yul\":7096:7102   */\n      dup6\n        /* \"#utility.yul\":7087:7094   */\n      dup3\n        /* \"#utility.yul\":7084:7103   */\n      lt\n        /* \"#utility.yul\":7081:7282   */\n      iszero\n      tag_283\n      jumpi\n        /* \"#utility.yul\":7157:7176   */\n      dup8\n      dup6\n      add\n        /* \"#utility.yul\":7151:7177   */\n      mload\n      not(0x00)\n        /* \"#utility.yul\":7240:7241   */\n      0x03\n        /* \"#utility.yul\":7236:7250   */\n      dup9\n      swap1\n      shl\n        /* \"#utility.yul\":7252:7255   */\n      0xf8\n        /* \"#utility.yul\":7232:7256   */\n      and\n        /* \"#utility.yul\":7228:7265   */\n      shr\n        /* \"#utility.yul\":7224:7266   */\n      not\n        /* \"#utility.yul\":7209:7267   */\n      and\n        /* \"#utility.yul\":7194:7268   */\n      dup2\n      sstore\n        /* \"#utility.yul\":7081:7282   */\n    tag_283:\n      pop\n      pop\n      pop\n      pop\n      pop\n        /* \"#utility.yul\":7328:7329   */\n      0x01\n        /* \"#utility.yul\":7312:7326   */\n      swap1\n      dup2\n      shl\n        /* \"#utility.yul\":7308:7330   */\n      add\n        /* \"#utility.yul\":7295:7331   */\n      swap1\n      sstore\n      pop\n        /* \"#utility.yul\":6246:7598   */\n      jump\t// out\n        /* \"#utility.yul\":7603:7730   */\n    tag_151:\n        /* \"#utility.yul\":7664:7674   */\n      0x4e487b71\n        /* \"#utility.yul\":7659:7662   */\n      0xe0\n        /* \"#utility.yul\":7655:7675   */\n      shl\n        /* \"#utility.yul\":7652:7653   */\n      0x00\n        /* \"#utility.yul\":7645:7676   */\n      mstore\n        /* \"#utility.yul\":7695:7699   */\n      0x32\n        /* \"#utility.yul\":7692:7693   */\n      0x04\n        /* \"#utility.yul\":7685:7700   */\n      mstore\n        /* \"#utility.yul\":7719:7723   */\n      0x24\n        /* \"#utility.yul\":7716:7717   */\n      0x00\n        /* \"#utility.yul\":7709:7724   */\n      revert\n        /* \"#utility.yul\":7735:8577   */\n    tag_154:\n        /* \"#utility.yul\":7863:7866   */\n      0x00\n        /* \"#utility.yul\":7892:7893   */\n      dup1\n        /* \"#utility.yul\":7925:7931   */\n      dup4\n        /* \"#utility.yul\":7919:7932   */\n      sload\n        /* \"#utility.yul\":7955:7991   */\n      tag_286\n        /* \"#utility.yul\":7981:7990   */\n      dup2\n        /* \"#utility.yul\":7955:7991   */\n      tag_135\n      jump\t// in\n    tag_286:\n        /* \"#utility.yul\":8010:8011   */\n      0x01\n        /* \"#utility.yul\":8027:8045   */\n      dup3\n      dup2\n      and\n        /* \"#utility.yul\":8054:8187   */\n      dup1\n      iszero\n      tag_288\n      jumpi\n        /* \"#utility.yul\":8201:8202   */\n      0x01\n        /* \"#utility.yul\":8196:8552   */\n      dup2\n      eq\n      tag_289\n      jumpi\n        /* \"#utility.yul\":8020:8552   */\n      jump(tag_287)\n        /* \"#utility.yul\":8054:8187   */\n    tag_288:\n      not(0xff)\n        /* \"#utility.yul\":8087:8111   */\n      dup5\n      and\n        /* \"#utility.yul\":8075:8112   */\n      dup8\n      mstore\n        /* \"#utility.yul\":8160:8174   */\n      dup3\n      iszero\n        /* \"#utility.yul\":8153:8175   */\n      iszero\n        /* \"#utility.yul\":8141:8176   */\n      dup4\n      mul\n        /* \"#utility.yul\":8132:8177   */\n      dup8\n      add\n      swap5\n      pop\n        /* \"#utility.yul\":8054:8187   */\n      jump(tag_287)\n        /* \"#utility.yul\":8196:8552   */\n    tag_289:\n        /* \"#utility.yul\":8227:8233   */\n      dup8\n        /* \"#utility.yul\":8224:8225   */\n      0x00\n        /* \"#utility.yul\":8217:8234   */\n      mstore\n        /* \"#utility.yul\":8257:8261   */\n      0x20\n        /* \"#utility.yul\":8302:8304   */\n      dup1\n        /* \"#utility.yul\":8299:8300   */\n      0x00\n        /* \"#utility.yul\":8289:8305   */\n      keccak256\n        /* \"#utility.yul\":8327:8328   */\n      0x00\n        /* \"#utility.yul\":8341:8506   */\n    tag_290:\n        /* \"#utility.yul\":8355:8361   */\n      dup6\n        /* \"#utility.yul\":8352:8353   */\n      dup2\n        /* \"#utility.yul\":8349:8362   */\n      lt\n        /* \"#utility.yul\":8341:8506   */\n      iszero\n      tag_292\n      jumpi\n        /* \"#utility.yul\":8433:8447   */\n      dup2\n      sload\n        /* \"#utility.yul\":8420:8431   */\n      dup11\n      dup3\n      add\n        /* \"#utility.yul\":8413:8448   */\n      mstore\n        /* \"#utility.yul\":8476:8492   */\n      swap1\n      dup5\n      add\n      swap1\n        /* \"#utility.yul\":8370:8380   */\n      dup3\n      add\n        /* \"#utility.yul\":8341:8506   */\n      jump(tag_290)\n    tag_292:\n        /* \"#utility.yul\":8345:8348   */\n      pop\n      pop\n      pop\n        /* \"#utility.yul\":8535:8541   */\n      dup3\n        /* \"#utility.yul\":8530:8533   */\n      dup8\n        /* \"#utility.yul\":8526:8542   */\n      add\n        /* \"#utility.yul\":8519:8542   */\n      swap5\n      pop\n        /* \"#utility.yul\":8020:8552   */\n    tag_287:\n      pop\n        /* \"#utility.yul\":8568:8571   */\n      swap3\n      swap7\n        /* \"#utility.yul\":7735:8577   */\n      swap6\n      pop\n      pop\n      pop\n      pop\n      pop\n      pop\n      jump\t// out\n        /* \"#utility.yul\":8582:8814   */\n    tag_174:\n        /* \"#utility.yul\":8621:8624   */\n      0x00\n        /* \"#utility.yul\":8642:8659   */\n      0x01\n      dup3\n      add\n        /* \"#utility.yul\":8639:8779   */\n      tag_294\n      jumpi\n        /* \"#utility.yul\":8701:8711   */\n      0x4e487b71\n        /* \"#utility.yul\":8696:8699   */\n      0xe0\n        /* \"#utility.yul\":8692:8712   */\n      shl\n        /* \"#utility.yul\":8689:8690   */\n      0x00\n        /* \"#utility.yul\":8682:8713   */\n      mstore\n        /* \"#utility.yul\":8736:8740   */\n      0x11\n        /* \"#utility.yul\":8733:8734   */\n      0x04\n        /* \"#utility.yul\":8726:8741   */\n      mstore\n        /* \"#utility.yul\":8764:8768   */\n      0x24\n        /* \"#utility.yul\":8761:8762   */\n      0x00\n        /* \"#utility.yul\":8754:8769   */\n      revert\n        /* \"#utility.yul\":8639:8779   */\n    tag_294:\n      pop\n        /* \"#utility.yul\":8806:8807   */\n      0x01\n        /* \"#utility.yul\":8795:8808   */\n      add\n      swap1\n        /* \"#utility.yul\":8582:8814   */\n      jump\t// out\n\n    auxdata: 0xa2646970667358221220635d36fc5af1d524e3addaedf5feffccabd75a4167107c943c2985414fe01f0164736f6c63430008110033\n}\n",
    "bytecode": {
      "linkReferences": {},
      "object": "608060405234801561001057600080fd5b50600480546001600160a01b031916331790556112c8806100326000396000f3fe60806040526004361061015f5760003560e01c806395cdc823116100c0578063c88c583a11610074578063cd6cc7d411610059578063cd6cc7d4146103f3578063e15d046c14610413578063f851a4401461042657600080fd5b8063c88c583a146103be578063ccc1f580146103de57600080fd5b8063a5bfe8b6116100a5578063a5bfe8b614610376578063a8072ecb14610389578063c847a9181461039e57600080fd5b806395cdc823146103365780639c067c861461035657600080fd5b80634cfe2ee811610117578063621014fc116100fc578063621014fc146102d257806367259f7c146103015780636fd094f41461031657600080fd5b80634cfe2ee81461027f5780635ec9693a146102b257600080fd5b80631f4ad38b116101485780631f4ad38b146101b65780632ac8b49b146101d55780633bbe79291461025f57600080fd5b80630bcfefed146101645780631b470bc7146101a1575b600080fd5b34801561017057600080fd5b5061018461017f366004610e17565b610446565b6040516001600160a01b0390911681526020015b60405180910390f35b6101b46101af366004610e4c565b610470565b005b3480156101c257600080fd5b506003545b604051908152602001610198565b3480156101e157600080fd5b5061022a6101f0366004610e4c565b6007602052600090815260409020805460018201546002909201546001600160a01b0391821692821691811690600160a01b900460ff1684565b60405161019894939291906001600160a01b039485168152928416602084015292166040820152901515606082015260800190565b34801561026b57600080fd5b506101b461027a366004610f11565b6104ae565b34801561028b57600080fd5b5061029f61029a366004610e4c565b61056a565b6040516101989796959493929190610f94565b3480156102be57600080fd5b506101846102cd366004610e4c565b6106cc565b3480156102de57600080fd5b506102f26102ed366004610e4c565b6109ee565b60405161019893929190610ff4565b34801561030d57600080fd5b506000546101c7565b34801561032257600080fd5b5061029f610331366004610e4c565b610aa6565b34801561034257600080fd5b506101b4610351366004611028565b610adb565b34801561036257600080fd5b50610184610371366004610e17565b610c13565b6101b4610384366004610e4c565b610c23565b34801561039557600080fd5b506001546101c7565b3480156103aa57600080fd5b506101846103b9366004610e17565b610c72565b3480156103ca57600080fd5b506101b46103d9366004611028565b610c82565b3480156103ea57600080fd5b506002546101c7565b3480156103ff57600080fd5b5061018461040e366004610e17565b610db8565b6101b4610421366004610e4c565b610dc8565b34801561043257600080fd5b50600454610184906001600160a01b031681565b6001818154811061045657600080fd5b6000918252602090912001546001600160a01b0316905081565b6004546001600160a01b0316331461048757600080fd5b6001600160a01b03166000908152600860205260409020600201805460ff19166001179055565b6040805160608101825233808252602080830185815260008486018190529283526008909152929020815181546001600160a01b0319166001600160a01b0390911617815591519091906001820190610507908261111f565b50604091909101516002909101805491151560ff1990921691909117905550600380546001810182556000919091527fc2575a0e9e593c00f959f8c92f12db2869c3395a3b0502d05e2516446f71f85b0180546001600160a01b03191633179055565b6005602052600090815260409020805460018201546002830180546001600160a01b0393841694929093169261059f9061109c565b80601f01602080910402602001604051908101604052809291908181526020018280546105cb9061109c565b80156106185780601f106105ed57610100808354040283529160200191610618565b820191906000526020600020905b8154815290600101906020018083116105fb57829003601f168201915b50505050509080600301805461062d9061109c565b80601f01602080910402602001604051908101604052809291908181526020018280546106599061109c565b80156106a65780601f1061067b576101008083540402835291602001916106a6565b820191906000526020600020905b81548152906001019060200180831161068957829003601f168201915b5050506004909301549192505060ff808216916101008104821691620100009091041687565b6000805b6001548110156109e85760066000600183815481106106f1576106f16111df565b60009182526020808320909101546001600160a01b031683528281019390935260409182019020905161072a92600290920191016111f5565b60408051601f1981840301815282825280516020918201206001600160a01b0387166000908152600583529290922091926107699260020191016111f5565b6040516020818303038152906040528051906020012014801561082e5750600660006001838154811061079e5761079e6111df565b60009182526020808320909101546001600160a01b03168352828101939093526040918201902090516107d792600390920191016111f5565b60408051601f1981840301815282825280516020918201206001600160a01b0387166000908152600583529290922091926108169260030191016111f5565b60405160208183030381529060405280519060200120145b156109d6576040518060800160405280846001600160a01b0316815260200160018381548110610860576108606111df565b60009182526020808320909101546001600160a01b03908116845233848301526001604094850181905288821680855260078452858520875181549085166001600160a01b031991821617825588860151828501805491871691831691909117905588880151600292830180546060909b01511515600160a01b027fffffffffffffffffffffff000000000000000000000000000000000000000000909b1691909616179890981790935582548083019093557f405787fa12a823e0f2b7631cc41b3ba8828b3321ca811111fa75cd3aa3bb5ace90920180549096168217909555825260059052908120600401805460ff19168317905581546006919083908590811061096f5761096f6111df565b6000918252602080832091909101546001600160a01b031683528201929092526040019020600401805460ff191691151591909117905560018054829081106109ba576109ba6111df565b6000918252602090912001546001600160a01b03169392505050565b806109e08161126b565b9150506106d0565b50919050565b600860205260009081526040902080546001820180546001600160a01b039092169291610a1a9061109c565b80601f0160208091040260200160405190810160405280929190818152602001828054610a469061109c565b8015610a935780601f10610a6857610100808354040283529160200191610a93565b820191906000526020600020905b815481529060010190602001808311610a7657829003601f168201915b5050506002909301549192505060ff1683565b6006602052600090815260409020805460018201546002830180546001600160a01b0393841694929093169261059f9061109c565b6040805160e081018252338082526001600160a01b03868116602080850191825284860188815260608601889052600060808701819052600160a0880181905260c088018290529581526006909252959020845181549084166001600160a01b031991821617825591519381018054949093169390911692909217905591519091906002820190610b6c908261111f565b5060608201516003820190610b81908261111f565b5060808201516004909101805460a084015160c0909401511515620100000262ff0000199415156101000261ff00199415159490941661ffff1990921691909117929092179290921617905550506001805480820182556000919091527fb10e2d527612073b26eecdfd717e6a320cf44b4afac2b0732d9fcbe2b7fa0cf60180546001600160a01b0319163317905550565b6003818154811061045657600080fd5b3360009081526008602052604090206002015460ff161515600114610c4757600080fd5b6001600160a01b03166000908152600560205260409020600401805462ff0000191662010000179055565b6000818154811061045657600080fd5b6040805160e081018252338082526001600160a01b03868116602080850191825284860188815260608601889052600060808701819052600160a0880181905260c088018290529581526005909252959020845181549084166001600160a01b031991821617825591519381018054949093169390911692909217905591519091906002820190610d13908261111f565b5060608201516003820190610d28908261111f565b5060808201516004909101805460a084015160c0909401511515620100000262ff0000199415156101000261ff00199415159490941661ffff199092169190911792909217929092161790555050600080546001810182559080527f290decd9548b62a8d60345a988386fc84ba6bc95484008f6362f93160ef3e5630180546001600160a01b0319163317905550565b6002818154811061045657600080fd5b3360009081526008602052604090206002015460ff161515600114610dec57600080fd5b6001600160a01b03166000908152600660205260409020600401805462ff0000191662010000179055565b600060208284031215610e2957600080fd5b5035919050565b80356001600160a01b0381168114610e4757600080fd5b919050565b600060208284031215610e5e57600080fd5b610e6782610e30565b9392505050565b634e487b7160e01b600052604160045260246000fd5b600082601f830112610e9557600080fd5b813567ffffffffffffffff80821115610eb057610eb0610e6e565b604051601f8301601f19908116603f01168101908282118183101715610ed857610ed8610e6e565b81604052838152866020858801011115610ef157600080fd5b836020870160208301376000602085830101528094505050505092915050565b600060208284031215610f2357600080fd5b813567ffffffffffffffff811115610f3a57600080fd5b610f4684828501610e84565b949350505050565b6000815180845260005b81811015610f7457602081850181015186830182015201610f58565b506000602082860101526020601f19601f83011685010191505092915050565b60006001600160a01b03808a16835280891660208401525060e06040830152610fc060e0830188610f4e565b8281036060840152610fd28188610f4e565b9515156080840152505091151560a0830152151560c090910152949350505050565b6001600160a01b03841681526060602082015260006110166060830185610f4e565b90508215156040830152949350505050565b60008060006060848603121561103d57600080fd5b61104684610e30565b9250602084013567ffffffffffffffff8082111561106357600080fd5b61106f87838801610e84565b9350604086013591508082111561108557600080fd5b5061109286828701610e84565b9150509250925092565b600181811c908216806110b057607f821691505b6020821081036109e857634e487b7160e01b600052602260045260246000fd5b601f82111561111a57600081815260208120601f850160051c810160208610156110f75750805b601f850160051c820191505b8181101561111657828155600101611103565b5050505b505050565b815167ffffffffffffffff81111561113957611139610e6e565b61114d81611147845461109c565b846110d0565b602080601f831160018114611182576000841561116a5750858301515b600019600386901b1c1916600185901b178555611116565b600085815260208120601f198616915b828110156111b157888601518255948401946001909101908401611192565b50858210156111cf5787850151600019600388901b60f8161c191681555b5050505050600190811b01905550565b634e487b7160e01b600052603260045260246000fd5b60008083546112038161109c565b6001828116801561121b57600181146112305761125f565b60ff198416875282151583028701945061125f565b8760005260208060002060005b858110156112565781548a82015290840190820161123d565b50505082870194505b50929695505050505050565b60006001820161128b57634e487b7160e01b600052601160045260246000fd5b506001019056fea2646970667358221220635d36fc5af1d524e3addaedf5feffccabd75a4167107c943c2985414fe01f0164736f6c63430008110033",
      "opcodes": "PUSH1 0x80 PUSH1 0x40 MSTORE CALLVALUE DUP1 ISZERO PUSH2 0x10 JUMPI PUSH1 0x0 DUP1 REVERT JUMPDEST POP PUSH1 0x4 DUP1 SLOAD PUSH1 0x1 PUSH1 0x1 PUSH1 0xA0 SHL SUB NOT AND CALLER OR SWAP1 SSTORE PUSH2 0x12C8 DUP1 PUSH2 0x32 PUSH1 0x0 CODECOPY PUSH1 0x0 RETURN INVALID PUSH1 0x80 PUSH1 0x40 MSTORE PUSH1 0x4 CALLDATASIZE LT PUSH2 0x15F JUMPI PUSH1 0x0 CALLDATALOAD PUSH1 0xE0 SHR DUP1 PUSH4 0x95CDC823 GT PUSH2 0xC0 JUMPI DUP1 PUSH4 0xC88C583A GT PUSH2 0x74 JUMPI DUP1 PUSH4 0xCD6CC7D4 GT PUSH2 0x59 JUMPI DUP1 PUSH4 0xCD6CC7D4 EQ PUSH2 0x3F3 JUMPI DUP1 PUSH4 0xE15D046C EQ PUSH2 0x413 JUMPI DUP1 PUSH4 0xF851A440 EQ PUSH2 0x426 JUMPI PUSH1 0x0 DUP1 REVERT JUMPDEST DUP1 PUSH4 0xC88C583A EQ PUSH2 0x3BE JUMPI DUP1 PUSH4 0xCCC1F580 EQ PUSH2 0x3DE JUMPI PUSH1 0x0 DUP1 REVERT JUMPDEST DUP1 PUSH4 0xA5BFE8B6 GT PUSH2 0xA5 JUMPI DUP1 PUSH4 0xA5BFE8B6 EQ PUSH2 0x376 JUMPI DUP1 PUSH4 0xA8072ECB EQ PUSH2 0x389 JUMPI DUP1 PUSH4 0xC847A918 EQ PUSH2 0x39E JUMPI PUSH1 0x0 DUP1 REVERT JUMPDEST DUP1 PUSH4 0x95CDC823 EQ PUSH2 0x336 JUMPI DUP1 PUSH4 0x9C067C86 EQ PUSH2 0x356 JUMPI PUSH1 0x0 DUP1 REVERT JUMPDEST DUP1 PUSH4 0x4CFE2EE8 GT PUSH2 0x117 JUMPI DUP1 PUSH4 0x621014FC GT PUSH2 0xFC JUMPI DUP1 PUSH4 0x621014FC EQ PUSH2 0x2D2 JUMPI DUP1 PUSH4 0x67259F7C EQ PUSH2 0x301 JUMPI DUP1 PUSH4 0x6FD094F4 EQ PUSH2 0x316 JUMPI PUSH1 0x0 DUP1 REVERT JUMPDEST DUP1 PUSH4 0x4CFE2EE8 EQ PUSH2 0x27F JUMPI DUP1 PUSH4 0x5EC9693A EQ PUSH2 0x2B2 JUMPI PUSH1 0x0 DUP1 REVERT JUMPDEST DUP1 PUSH4 0x1F4AD38B GT PUSH2 0x148 JUMPI DUP1 PUSH4 0x1F4AD38B EQ PUSH2 0x1B6 JUMPI DUP1 PUSH4 0x2AC8B49B EQ PUSH2 0x1D5 JUMPI DUP1 PUSH4 0x3BBE7929 EQ PUSH2 0x25F JUMPI PUSH1 0x0 DUP1 REVERT JUMPDEST DUP1 PUSH4 0xBCFEFED EQ PUSH2 0x164 JUMPI DUP1 PUSH4 0x1B470BC7 EQ PUSH2 0x1A1 JUMPI JUMPDEST PUSH1 0x0 DUP1 REVERT JUMPDEST CALLVALUE DUP1 ISZERO PUSH2 0x170 JUMPI PUSH1 0x0 DUP1 REVERT JUMPDEST POP PUSH2 0x184 PUSH2 0x17F CALLDATASIZE PUSH1 0x4 PUSH2 0xE17 JUMP JUMPDEST PUSH2 0x446 JUMP JUMPDEST PUSH1 0x40 MLOAD PUSH1 0x1 PUSH1 0x1 PUSH1 0xA0 SHL SUB SWAP1 SWAP2 AND DUP2 MSTORE PUSH1 0x20 ADD JUMPDEST PUSH1 0x40 MLOAD DUP1 SWAP2 SUB SWAP1 RETURN JUMPDEST PUSH2 0x1B4 PUSH2 0x1AF CALLDATASIZE PUSH1 0x4 PUSH2 0xE4C JUMP JUMPDEST PUSH2 0x470 JUMP JUMPDEST STOP JUMPDEST CALLVALUE DUP1 ISZERO PUSH2 0x1C2 JUMPI PUSH1 0x0 DUP1 REVERT JUMPDEST POP PUSH1 0x3 SLOAD JUMPDEST PUSH1 0x40 MLOAD SWAP1 DUP2 MSTORE PUSH1 0x20 ADD PUSH2 0x198 JUMP JUMPDEST CALLVALUE DUP1 ISZERO PUSH2 0x1E1 JUMPI PUSH1 0x0 DUP1 REVERT JUMPDEST POP PUSH2 0x22A PUSH2 0x1F0 CALLDATASIZE PUSH1 0x4 PUSH2 0xE4C JUMP JUMPDEST PUSH1 0x7 PUSH1 0x20 MSTORE PUSH1 0x0 SWAP1 DUP2 MSTORE PUSH1 0x40 SWAP1 KECCAK256 DUP1 SLOAD PUSH1 0x1 DUP3 ADD SLOAD PUSH1 0x2 SWAP1 SWAP3 ADD SLOAD PUSH1 0x1 PUSH1 0x1 PUSH1 0xA0 SHL SUB SWAP2 DUP3 AND SWAP3 DUP3 AND SWAP2 DUP2 AND SWAP1 PUSH1 0x1 PUSH1 0xA0 SHL SWAP1 DIV PUSH1 0xFF AND DUP5 JUMP JUMPDEST PUSH1 0x40 MLOAD PUSH2 0x198 SWAP5 SWAP4 SWAP3 SWAP2 SWAP1 PUSH1 0x1 PUSH1 0x1 PUSH1 0xA0 SHL SUB SWAP5 DUP6 AND DUP2 MSTORE SWAP3 DUP5 AND PUSH1 0x20 DUP5 ADD MSTORE SWAP3 AND PUSH1 0x40 DUP3 ADD MSTORE SWAP1 ISZERO ISZERO PUSH1 0x60 DUP3 ADD MSTORE PUSH1 0x80 ADD SWAP1 JUMP JUMPDEST CALLVALUE DUP1 ISZERO PUSH2 0x26B JUMPI PUSH1 0x0 DUP1 REVERT JUMPDEST POP PUSH2 0x1B4 PUSH2 0x27A CALLDATASIZE PUSH1 0x4 PUSH2 0xF11 JUMP JUMPDEST PUSH2 0x4AE JUMP JUMPDEST CALLVALUE DUP1 ISZERO PUSH2 0x28B JUMPI PUSH1 0x0 DUP1 REVERT JUMPDEST POP PUSH2 0x29F PUSH2 0x29A CALLDATASIZE PUSH1 0x4 PUSH2 0xE4C JUMP JUMPDEST PUSH2 0x56A JUMP JUMPDEST PUSH1 0x40 MLOAD PUSH2 0x198 SWAP8 SWAP7 SWAP6 SWAP5 SWAP4 SWAP3 SWAP2 SWAP1 PUSH2 0xF94 JUMP JUMPDEST CALLVALUE DUP1 ISZERO PUSH2 0x2BE JUMPI PUSH1 0x0 DUP1 REVERT JUMPDEST POP PUSH2 0x184 PUSH2 0x2CD CALLDATASIZE PUSH1 0x4 PUSH2 0xE4C JUMP JUMPDEST PUSH2 0x6CC JUMP JUMPDEST CALLVALUE DUP1 ISZERO PUSH2 0x2DE JUMPI PUSH1 0x0 DUP1 REVERT JUMPDEST POP PUSH2 0x2F2 PUSH2 0x2ED CALLDATASIZE PUSH1 0x4 PUSH2 0xE4C JUMP JUMPDEST PUSH2 0x9EE JUMP JUMPDEST PUSH1 0x40 MLOAD PUSH2 0x198 SWAP4 SWAP3 SWAP2 SWAP1 PUSH2 0xFF4 JUMP JUMPDEST CALLVALUE DUP1 ISZERO PUSH2 0x30D JUMPI PUSH1 0x0 DUP1 REVERT JUMPDEST POP PUSH1 0x0 SLOAD PUSH2 0x1C7 JUMP JUMPDEST CALLVALUE DUP1 ISZERO PUSH2 0x322 JUMPI PUSH1 0x0 DUP1 REVERT JUMPDEST POP PUSH2 0x29F PUSH2 0x331 CALLDATASIZE PUSH1 0x4 PUSH2 0xE4C JUMP JUMPDEST PUSH2 0xAA6 JUMP JUMPDEST CALLVALUE DUP1 ISZERO PUSH2 0x342 JUMPI PUSH1 0x0 DUP1 REVERT JUMPDEST POP PUSH2 0x1B4 PUSH2 0x351 CALLDATASIZE PUSH1 0x4 PUSH2 0x1028 JUMP JUMPDEST PUSH2 0xADB JUMP JUMPDEST CALLVALUE DUP1 ISZERO PUSH2 0x362 JUMPI PUSH1 0x0 DUP1 REVERT JUMPDEST POP PUSH2 0x184 PUSH2 0x371 CALLDATASIZE PUSH1 0x4 PUSH2 0xE17 JUMP JUMPDEST PUSH2 0xC13 JUMP JUMPDEST PUSH2 0x1B4 PUSH2 0x384 CALLDATASIZE PUSH1 0x4 PUSH2 0xE4C JUMP JUMPDEST PUSH2 0xC23 JUMP JUMPDEST CALLVALUE DUP1 ISZERO PUSH2 0x395 JUMPI PUSH1 0x0 DUP1 REVERT JUMPDEST POP PUSH1 0x1 SLOAD PUSH2 0x1C7 JUMP JUMPDEST CALLVALUE DUP1 ISZERO PUSH2 0x3AA JUMPI PUSH1 0x0 DUP1 REVERT JUMPDEST POP PUSH2 0x184 PUSH2 0x3B9 CALLDATASIZE PUSH1 0x4 PUSH2 0xE17 JUMP JUMPDEST PUSH2 0xC72 JUMP JUMPDEST CALLVALUE DUP1 ISZERO PUSH2 0x3CA JUMPI PUSH1 0x0 DUP1 REVERT JUMPDEST POP PUSH2 0x1B4 PUSH2 0x3D9 CALLDATASIZE PUSH1 0x4 PUSH2 0x1028 JUMP JUMPDEST PUSH2 0xC82 JUMP JUMPDEST CALLVALUE DUP1 ISZERO PUSH2 0x3EA JUMPI PUSH1 0x0 DUP1 REVERT JUMPDEST POP PUSH1 0x2 SLOAD PUSH2 0x1C7 JUMP JUMPDEST CALLVALUE DUP1 ISZERO PUSH2 0x3FF JUMPI PUSH1 0x0 DUP1 REVERT JUMPDEST POP PUSH2 0x184 PUSH2 0x40E CALLDATASIZE PUSH1 0x4 PUSH2 0xE17 JUMP JUMPDEST PUSH2 0xDB8 JUMP JUMPDEST PUSH2 0x1B4 PUSH2 0x421 CALLDATASIZE PUSH1 0x4 PUSH2 0xE4C JUMP JUMPDEST PUSH2 0xDC8 JUMP JUMPDEST CALLVALUE DUP1 ISZERO PUSH2 0x432 JUMPI PUSH1 0x0 DUP1 REVERT JUMPDEST POP PUSH1 0x4 SLOAD PUSH2 0x184 SWAP1 PUSH1 0x1 PUSH1 0x1 PUSH1 0xA0 SHL SUB AND DUP2 JUMP JUMPDEST PUSH1 0x1 DUP2 DUP2 SLOAD DUP2 LT PUSH2 0x456 JUMPI PUSH1 0x0 DUP1 REVERT JUMPDEST PUSH1 0x0 SWAP2 DUP3 MSTORE PUSH1 0x20 SWAP1 SWAP2 KECCAK256 ADD SLOAD PUSH1 0x1 PUSH1 0x1 PUSH1 0xA0 SHL SUB AND SWAP1 POP DUP2 JUMP JUMPDEST PUSH1 0x4 SLOAD PUSH1 0x1 PUSH1 0x1 PUSH1 0xA0 SHL SUB AND CALLER EQ PUSH2 0x487 JUMPI PUSH1 0x0 DUP1 REVERT JUMPDEST PUSH1 0x1 PUSH1 0x1 PUSH1 0xA0 SHL SUB AND PUSH1 0x0 SWAP1 DUP2 MSTORE PUSH1 0x8 PUSH1 0x20 MSTORE PUSH1 0x40 SWAP1 KECCAK256 PUSH1 0x2 ADD DUP1 SLOAD PUSH1 0xFF NOT AND PUSH1 0x1 OR SWAP1 SSTORE JUMP JUMPDEST PUSH1 0x40 DUP1 MLOAD PUSH1 0x60 DUP2 ADD DUP3 MSTORE CALLER DUP1 DUP3 MSTORE PUSH1 0x20 DUP1 DUP4 ADD DUP6 DUP2 MSTORE PUSH1 0x0 DUP5 DUP7 ADD DUP2 SWAP1 MSTORE SWAP3 DUP4 MSTORE PUSH1 0x8 SWAP1 SWAP2 MSTORE SWAP3 SWAP1 KECCAK256 DUP2 MLOAD DUP2 SLOAD PUSH1 0x1 PUSH1 0x1 PUSH1 0xA0 SHL SUB NOT AND PUSH1 0x1 PUSH1 0x1 PUSH1 0xA0 SHL SUB SWAP1 SWAP2 AND OR DUP2 SSTORE SWAP2 MLOAD SWAP1 SWAP2 SWAP1 PUSH1 0x1 DUP3 ADD SWAP1 PUSH2 0x507 SWAP1 DUP3 PUSH2 0x111F JUMP JUMPDEST POP PUSH1 0x40 SWAP2 SWAP1 SWAP2 ADD MLOAD PUSH1 0x2 SWAP1 SWAP2 ADD DUP1 SLOAD SWAP2 ISZERO ISZERO PUSH1 0xFF NOT SWAP1 SWAP3 AND SWAP2 SWAP1 SWAP2 OR SWAP1 SSTORE POP PUSH1 0x3 DUP1 SLOAD PUSH1 0x1 DUP2 ADD DUP3 SSTORE PUSH1 0x0 SWAP2 SWAP1 SWAP2 MSTORE PUSH32 0xC2575A0E9E593C00F959F8C92F12DB2869C3395A3B0502D05E2516446F71F85B ADD DUP1 SLOAD PUSH1 0x1 PUSH1 0x1 PUSH1 0xA0 SHL SUB NOT AND CALLER OR SWAP1 SSTORE JUMP JUMPDEST PUSH1 0x5 PUSH1 0x20 MSTORE PUSH1 0x0 SWAP1 DUP2 MSTORE PUSH1 0x40 SWAP1 KECCAK256 DUP1 SLOAD PUSH1 0x1 DUP3 ADD SLOAD PUSH1 0x2 DUP4 ADD DUP1 SLOAD PUSH1 0x1 PUSH1 0x1 PUSH1 0xA0 SHL SUB SWAP4 DUP5 AND SWAP5 SWAP3 SWAP1 SWAP4 AND SWAP3 PUSH2 0x59F SWAP1 PUSH2 0x109C JUMP JUMPDEST DUP1 PUSH1 0x1F ADD PUSH1 0x20 DUP1 SWAP2 DIV MUL PUSH1 0x20 ADD PUSH1 0x40 MLOAD SWAP1 DUP2 ADD PUSH1 0x40 MSTORE DUP1 SWAP3 SWAP2 SWAP1 DUP2 DUP2 MSTORE PUSH1 0x20 ADD DUP3 DUP1 SLOAD PUSH2 0x5CB SWAP1 PUSH2 0x109C JUMP JUMPDEST DUP1 ISZERO PUSH2 0x618 JUMPI DUP1 PUSH1 0x1F LT PUSH2 0x5ED JUMPI PUSH2 0x100 DUP1 DUP4 SLOAD DIV MUL DUP4 MSTORE SWAP2 PUSH1 0x20 ADD SWAP2 PUSH2 0x618 JUMP JUMPDEST DUP3 ADD SWAP2 SWAP1 PUSH1 0x0 MSTORE PUSH1 0x20 PUSH1 0x0 KECCAK256 SWAP1 JUMPDEST DUP2 SLOAD DUP2 MSTORE SWAP1 PUSH1 0x1 ADD SWAP1 PUSH1 0x20 ADD DUP1 DUP4 GT PUSH2 0x5FB JUMPI DUP3 SWAP1 SUB PUSH1 0x1F AND DUP3 ADD SWAP2 JUMPDEST POP POP POP POP POP SWAP1 DUP1 PUSH1 0x3 ADD DUP1 SLOAD PUSH2 0x62D SWAP1 PUSH2 0x109C JUMP JUMPDEST DUP1 PUSH1 0x1F ADD PUSH1 0x20 DUP1 SWAP2 DIV MUL PUSH1 0x20 ADD PUSH1 0x40 MLOAD SWAP1 DUP2 ADD PUSH1 0x40 MSTORE DUP1 SWAP3 SWAP2 SWAP1 DUP2 DUP2 MSTORE PUSH1 0x20 ADD DUP3 DUP1 SLOAD PUSH2 0x659 SWAP1 PUSH2 0x109C JUMP JUMPDEST DUP1 ISZERO PUSH2 0x6A6 JUMPI DUP1 PUSH1 0x1F LT PUSH2 0x67B JUMPI PUSH2 0x100 DUP1 DUP4 SLOAD DIV MUL DUP4 MSTORE SWAP2 PUSH1 0x20 ADD SWAP2 PUSH2 0x6A6 JUMP JUMPDEST DUP3 ADD SWAP2 SWAP1 PUSH1 0x0 MSTORE PUSH1 0x20 PUSH1 0x0 KECCAK256 SWAP1 JUMPDEST DUP2 SLOAD DUP2 MSTORE SWAP1 PUSH1 0x1 ADD SWAP1 PUSH1 0x20 ADD DUP1 DUP4 GT PUSH2 0x689 JUMPI DUP3 SWAP1 SUB PUSH1 0x1F AND DUP3 ADD SWAP2 JUMPDEST POP POP POP PUSH1 0x4 SWAP1 SWAP4 ADD SLOAD SWAP2 SWAP3 POP POP PUSH1 0xFF DUP1 DUP3 AND SWAP2 PUSH2 0x100 DUP2 DIV DUP3 AND SWAP2 PUSH3 0x10000 SWAP1 SWAP2 DIV AND DUP8 JUMP JUMPDEST PUSH1 0x0 DUP1 JUMPDEST PUSH1 0x1 SLOAD DUP2 LT ISZERO PUSH2 0x9E8 JUMPI PUSH1 0x6 PUSH1 0x0 PUSH1 0x1 DUP4 DUP2 SLOAD DUP2 LT PUSH2 0x6F1 JUMPI PUSH2 0x6F1 PUSH2 0x11DF JUMP JUMPDEST PUSH1 0x0 SWAP2 DUP3 MSTORE PUSH1 0x20 DUP1 DUP4 KECCAK256 SWAP1 SWAP2 ADD SLOAD PUSH1 0x1 PUSH1 0x1 PUSH1 0xA0 SHL SUB AND DUP4 MSTORE DUP3 DUP2 ADD SWAP4 SWAP1 SWAP4 MSTORE PUSH1 0x40 SWAP2 DUP3 ADD SWAP1 KECCAK256 SWAP1 MLOAD PUSH2 0x72A SWAP3 PUSH1 0x2 SWAP1 SWAP3 ADD SWAP2 ADD PUSH2 0x11F5 JUMP JUMPDEST PUSH1 0x40 DUP1 MLOAD PUSH1 0x1F NOT DUP2 DUP5 SUB ADD DUP2 MSTORE DUP3 DUP3 MSTORE DUP1 MLOAD PUSH1 0x20 SWAP2 DUP3 ADD KECCAK256 PUSH1 0x1 PUSH1 0x1 PUSH1 0xA0 SHL SUB DUP8 AND PUSH1 0x0 SWAP1 DUP2 MSTORE PUSH1 0x5 DUP4 MSTORE SWAP3 SWAP1 SWAP3 KECCAK256 SWAP2 SWAP3 PUSH2 0x769 SWAP3 PUSH1 0x2 ADD SWAP2 ADD PUSH2 0x11F5 JUMP JUMPDEST PUSH1 0x40 MLOAD PUSH1 0x20 DUP2 DUP4 SUB SUB DUP2 MSTORE SWAP1 PUSH1 0x40 MSTORE DUP1 MLOAD SWAP1 PUSH1 0x20 ADD KECCAK256 EQ DUP1 ISZERO PUSH2 0x82E JUMPI POP PUSH1 0x6 PUSH1 0x0 PUSH1 0x1 DUP4 DUP2 SLOAD DUP2 LT PUSH2 0x79E JUMPI PUSH2 0x79E PUSH2 0x11DF JUMP JUMPDEST PUSH1 0x0 SWAP2 DUP3 MSTORE PUSH1 0x20 DUP1 DUP4 KECCAK256 SWAP1 SWAP2 ADD SLOAD PUSH1 0x1 PUSH1 0x1 PUSH1 0xA0 SHL SUB AND DUP4 MSTORE DUP3 DUP2 ADD SWAP4 SWAP1 SWAP4 MSTORE PUSH1 0x40 SWAP2 DUP3 ADD SWAP1 KECCAK256 SWAP1 MLOAD PUSH2 0x7D7 SWAP3 PUSH1 0x3 SWAP1 SWAP3 ADD SWAP2 ADD PUSH2 0x11F5 JUMP JUMPDEST PUSH1 0x40 DUP1 MLOAD PUSH1 0x1F NOT DUP2 DUP5 SUB ADD DUP2 MSTORE DUP3 DUP3 MSTORE DUP1 MLOAD PUSH1 0x20 SWAP2 DUP3 ADD KECCAK256 PUSH1 0x1 PUSH1 0x1 PUSH1 0xA0 SHL SUB DUP8 AND PUSH1 0x0 SWAP1 DUP2 MSTORE PUSH1 0x5 DUP4 MSTORE SWAP3 SWAP1 SWAP3 KECCAK256 SWAP2 SWAP3 PUSH2 0x816 SWAP3 PUSH1 0x3 ADD SWAP2 ADD PUSH2 0x11F5 JUMP JUMPDEST PUSH1 0x40 MLOAD PUSH1 0x20 DUP2 DUP4 SUB SUB DUP2 MSTORE SWAP1 PUSH1 0x40 MSTORE DUP1 MLOAD SWAP1 PUSH1 0x20 ADD KECCAK256 EQ JUMPDEST ISZERO PUSH2 0x9D6 JUMPI PUSH1 0x40 MLOAD DUP1 PUSH1 0x80 ADD PUSH1 0x40 MSTORE DUP1 DUP5 PUSH1 0x1 PUSH1 0x1 PUSH1 0xA0 SHL SUB AND DUP2 MSTORE PUSH1 0x20 ADD PUSH1 0x1 DUP4 DUP2 SLOAD DUP2 LT PUSH2 0x860 JUMPI PUSH2 0x860 PUSH2 0x11DF JUMP JUMPDEST PUSH1 0x0 SWAP2 DUP3 MSTORE PUSH1 0x20 DUP1 DUP4 KECCAK256 SWAP1 SWAP2 ADD SLOAD PUSH1 0x1 PUSH1 0x1 PUSH1 0xA0 SHL SUB SWAP1 DUP2 AND DUP5 MSTORE CALLER DUP5 DUP4 ADD MSTORE PUSH1 0x1 PUSH1 0x40 SWAP5 DUP6 ADD DUP2 SWAP1 MSTORE DUP9 DUP3 AND DUP1 DUP6 MSTORE PUSH1 0x7 DUP5 MSTORE DUP6 DUP6 KECCAK256 DUP8 MLOAD DUP2 SLOAD SWAP1 DUP6 AND PUSH1 0x1 PUSH1 0x1 PUSH1 0xA0 SHL SUB NOT SWAP2 DUP3 AND OR DUP3 SSTORE DUP9 DUP7 ADD MLOAD DUP3 DUP6 ADD DUP1 SLOAD SWAP2 DUP8 AND SWAP2 DUP4 AND SWAP2 SWAP1 SWAP2 OR SWAP1 SSTORE DUP9 DUP9 ADD MLOAD PUSH1 0x2 SWAP3 DUP4 ADD DUP1 SLOAD PUSH1 0x60 SWAP1 SWAP12 ADD MLOAD ISZERO ISZERO PUSH1 0x1 PUSH1 0xA0 SHL MUL PUSH32 0xFFFFFFFFFFFFFFFFFFFFFF000000000000000000000000000000000000000000 SWAP1 SWAP12 AND SWAP2 SWAP1 SWAP7 AND OR SWAP9 SWAP1 SWAP9 OR SWAP1 SWAP4 SSTORE DUP3 SLOAD DUP1 DUP4 ADD SWAP1 SWAP4 SSTORE PUSH32 0x405787FA12A823E0F2B7631CC41B3BA8828B3321CA811111FA75CD3AA3BB5ACE SWAP1 SWAP3 ADD DUP1 SLOAD SWAP1 SWAP7 AND DUP3 OR SWAP1 SWAP6 SSTORE DUP3 MSTORE PUSH1 0x5 SWAP1 MSTORE SWAP1 DUP2 KECCAK256 PUSH1 0x4 ADD DUP1 SLOAD PUSH1 0xFF NOT AND DUP4 OR SWAP1 SSTORE DUP2 SLOAD PUSH1 0x6 SWAP2 SWAP1 DUP4 SWAP1 DUP6 SWAP1 DUP2 LT PUSH2 0x96F JUMPI PUSH2 0x96F PUSH2 0x11DF JUMP JUMPDEST PUSH1 0x0 SWAP2 DUP3 MSTORE PUSH1 0x20 DUP1 DUP4 KECCAK256 SWAP2 SWAP1 SWAP2 ADD SLOAD PUSH1 0x1 PUSH1 0x1 PUSH1 0xA0 SHL SUB AND DUP4 MSTORE DUP3 ADD SWAP3 SWAP1 SWAP3 MSTORE PUSH1 0x40 ADD SWAP1 KECCAK256 PUSH1 0x4 ADD DUP1 SLOAD PUSH1 0xFF NOT AND SWAP2 ISZERO ISZERO SWAP2 SWAP1 SWAP2 OR SWAP1 SSTORE PUSH1 0x1 DUP1 SLOAD DUP3 SWAP1 DUP2 LT PUSH2 0x9BA JUMPI PUSH2 0x9BA PUSH2 0x11DF JUMP JUMPDEST PUSH1 0x0 SWAP2 DUP3 MSTORE PUSH1 0x20 SWAP1 SWAP2 KECCAK256 ADD SLOAD PUSH1 0x1 PUSH1 0x1 PUSH1 0xA0 SHL SUB AND SWAP4 SWAP3 POP POP POP JUMP JUMPDEST DUP1 PUSH2 0x9E0 DUP2 PUSH2 0x126B JUMP JUMPDEST SWAP2 POP POP PUSH2 0x6D0 JUMP JUMPDEST POP SWAP2 SWAP1 POP JUMP JUMPDEST PUSH1 0x8 PUSH1 0x20 MSTORE PUSH1 0x0 SWAP1 DUP2 MSTORE PUSH1 0x40 SWAP1 KECCAK256 DUP1 SLOAD PUSH1 0x1 DUP3 ADD DUP1 SLOAD PUSH1 0x1 PUSH1 0x1 PUSH1 0xA0 SHL SUB SWAP1 SWAP3 AND SWAP3 SWAP2 PUSH2 0xA1A SWAP1 PUSH2 0x109C JUMP JUMPDEST DUP1 PUSH1 0x1F ADD PUSH1 0x20 DUP1 SWAP2 DIV MUL PUSH1 0x20 ADD PUSH1 0x40 MLOAD SWAP1 DUP2 ADD PUSH1 0x40 MSTORE DUP1 SWAP3 SWAP2 SWAP1 DUP2 DUP2 MSTORE PUSH1 0x20 ADD DUP3 DUP1 SLOAD PUSH2 0xA46 SWAP1 PUSH2 0x109C JUMP JUMPDEST DUP1 ISZERO PUSH2 0xA93 JUMPI DUP1 PUSH1 0x1F LT PUSH2 0xA68 JUMPI PUSH2 0x100 DUP1 DUP4 SLOAD DIV MUL DUP4 MSTORE SWAP2 PUSH1 0x20 ADD SWAP2 PUSH2 0xA93 JUMP JUMPDEST DUP3 ADD SWAP2 SWAP1 PUSH1 0x0 MSTORE PUSH1 0x20 PUSH1 0x0 KECCAK256 SWAP1 JUMPDEST DUP2 SLOAD DUP2 MSTORE SWAP1 PUSH1 0x1 ADD SWAP1 PUSH1 0x20 ADD DUP1 DUP4 GT PUSH2 0xA76 JUMPI DUP3 SWAP1 SUB PUSH1 0x1F AND DUP3 ADD SWAP2 JUMPDEST POP POP POP PUSH1 0x2 SWAP1 SWAP4 ADD SLOAD SWAP2 SWAP3 POP POP PUSH1 0xFF AND DUP4 JUMP JUMPDEST PUSH1 0x6 PUSH1 0x20 MSTORE PUSH1 0x0 SWAP1 DUP2 MSTORE PUSH1 0x40 SWAP1 KECCAK256 DUP1 SLOAD PUSH1 0x1 DUP3 ADD SLOAD PUSH1 0x2 DUP4 ADD DUP1 SLOAD PUSH1 0x1 PUSH1 0x1 PUSH1 0xA0 SHL SUB SWAP4 DUP5 AND SWAP5 SWAP3 SWAP1 SWAP4 AND SWAP3 PUSH2 0x59F SWAP1 PUSH2 0x109C JUMP JUMPDEST PUSH1 0x40 DUP1 MLOAD PUSH1 0xE0 DUP2 ADD DUP3 MSTORE CALLER DUP1 DUP3 MSTORE PUSH1 0x1 PUSH1 0x1 PUSH1 0xA0 SHL SUB DUP7 DUP2 AND PUSH1 0x20 DUP1 DUP6 ADD SWAP2 DUP3 MSTORE DUP5 DUP7 ADD DUP9 DUP2 MSTORE PUSH1 0x60 DUP7 ADD DUP9 SWAP1 MSTORE PUSH1 0x0 PUSH1 0x80 DUP8 ADD DUP2 SWAP1 MSTORE PUSH1 0x1 PUSH1 0xA0 DUP9 ADD DUP2 SWAP1 MSTORE PUSH1 0xC0 DUP9 ADD DUP3 SWAP1 MSTORE SWAP6 DUP2 MSTORE PUSH1 0x6 SWAP1 SWAP3 MSTORE SWAP6 SWAP1 KECCAK256 DUP5 MLOAD DUP2 SLOAD SWAP1 DUP5 AND PUSH1 0x1 PUSH1 0x1 PUSH1 0xA0 SHL SUB NOT SWAP2 DUP3 AND OR DUP3 SSTORE SWAP2 MLOAD SWAP4 DUP2 ADD DUP1 SLOAD SWAP5 SWAP1 SWAP4 AND SWAP4 SWAP1 SWAP2 AND SWAP3 SWAP1 SWAP3 OR SWAP1 SSTORE SWAP2 MLOAD SWAP1 SWAP2 SWAP1 PUSH1 0x2 DUP3 ADD SWAP1 PUSH2 0xB6C SWAP1 DUP3 PUSH2 0x111F JUMP JUMPDEST POP PUSH1 0x60 DUP3 ADD MLOAD PUSH1 0x3 DUP3 ADD SWAP1 PUSH2 0xB81 SWAP1 DUP3 PUSH2 0x111F JUMP JUMPDEST POP PUSH1 0x80 DUP3 ADD MLOAD PUSH1 0x4 SWAP1 SWAP2 ADD DUP1 SLOAD PUSH1 0xA0 DUP5 ADD MLOAD PUSH1 0xC0 SWAP1 SWAP5 ADD MLOAD ISZERO ISZERO PUSH3 0x10000 MUL PUSH3 0xFF0000 NOT SWAP5 ISZERO ISZERO PUSH2 0x100 MUL PUSH2 0xFF00 NOT SWAP5 ISZERO ISZERO SWAP5 SWAP1 SWAP5 AND PUSH2 0xFFFF NOT SWAP1 SWAP3 AND SWAP2 SWAP1 SWAP2 OR SWAP3 SWAP1 SWAP3 OR SWAP3 SWAP1 SWAP3 AND OR SWAP1 SSTORE POP POP PUSH1 0x1 DUP1 SLOAD DUP1 DUP3 ADD DUP3 SSTORE PUSH1 0x0 SWAP2 SWAP1 SWAP2 MSTORE PUSH32 0xB10E2D527612073B26EECDFD717E6A320CF44B4AFAC2B0732D9FCBE2B7FA0CF6 ADD DUP1 SLOAD PUSH1 0x1 PUSH1 0x1 PUSH1 0xA0 SHL SUB NOT AND CALLER OR SWAP1 SSTORE POP JUMP JUMPDEST PUSH1 0x3 DUP2 DUP2 SLOAD DUP2 LT PUSH2 0x456 JUMPI PUSH1 0x0 DUP1 REVERT JUMPDEST CALLER PUSH1 0x0 SWAP1 DUP2 MSTORE PUSH1 0x8 PUSH1 0x20 MSTORE PUSH1 0x40 SWAP1 KECCAK256 PUSH1 0x2 ADD SLOAD PUSH1 0xFF AND ISZERO ISZERO PUSH1 0x1 EQ PUSH2 0xC47 JUMPI PUSH1 0x0 DUP1 REVERT JUMPDEST PUSH1 0x1 PUSH1 0x1 PUSH1 0xA0 SHL SUB AND PUSH1 0x0 SWAP1 DUP2 MSTORE PUSH1 0x5 PUSH1 0x20 MSTORE PUSH1 0x40 SWAP1 KECCAK256 PUSH1 0x4 ADD DUP1 SLOAD PUSH3 0xFF0000 NOT AND PUSH3 0x10000 OR SWAP1 SSTORE JUMP JUMPDEST PUSH1 0x0 DUP2 DUP2 SLOAD DUP2 LT PUSH2 0x456 JUMPI PUSH1 0x0 DUP1 REVERT JUMPDEST PUSH1 0x40 DUP1 MLOAD PUSH1 0xE0 DUP2 ADD DUP3 MSTORE CALLER DUP1 DUP3 MSTORE PUSH1 0x1 PUSH1 0x1 PUSH1 0xA0 SHL SUB DUP7 DUP2 AND PUSH1 0x20 DUP1 DUP6 ADD SWAP2 DUP3 MSTORE DUP5 DUP7 ADD DUP9 DUP2 MSTORE PUSH1 0x60 DUP7 ADD DUP9 SWAP1 MSTORE PUSH1 0x0 PUSH1 0x80 DUP8 ADD DUP2 SWAP1 MSTORE PUSH1 0x1 PUSH1 0xA0 DUP9 ADD DUP2 SWAP1 MSTORE PUSH1 0xC0 DUP9 ADD DUP3 SWAP1 MSTORE SWAP6 DUP2 MSTORE PUSH1 0x5 SWAP1 SWAP3 MSTORE SWAP6 SWAP1 KECCAK256 DUP5 MLOAD DUP2 SLOAD SWAP1 DUP5 AND PUSH1 0x1 PUSH1 0x1 PUSH1 0xA0 SHL SUB NOT SWAP2 DUP3 AND OR DUP3 SSTORE SWAP2 MLOAD SWAP4 DUP2 ADD DUP1 SLOAD SWAP5 SWAP1 SWAP4 AND SWAP4 SWAP1 SWAP2 AND SWAP3 SWAP1 SWAP3 OR SWAP1 SSTORE SWAP2 MLOAD SWAP1 SWAP2 SWAP1 PUSH1 0x2 DUP3 ADD SWAP1 PUSH2 0xD13 SWAP1 DUP3 PUSH2 0x111F JUMP JUMPDEST POP PUSH1 0x60 DUP3 ADD MLOAD PUSH1 0x3 DUP3 ADD SWAP1 PUSH2 0xD28 SWAP1 DUP3 PUSH2 0x111F JUMP JUMPDEST POP PUSH1 0x80 DUP3 ADD MLOAD PUSH1 0x4 SWAP1 SWAP2 ADD DUP1 SLOAD PUSH1 0xA0 DUP5 ADD MLOAD PUSH1 0xC0 SWAP1 SWAP5 ADD MLOAD ISZERO ISZERO PUSH3 0x10000 MUL PUSH3 0xFF0000 NOT SWAP5 ISZERO ISZERO PUSH2 0x100 MUL PUSH2 0xFF00 NOT SWAP5 ISZERO ISZERO SWAP5 SWAP1 SWAP5 AND PUSH2 0xFFFF NOT SWAP1 SWAP3 AND SWAP2 SWAP1 SWAP2 OR SWAP3 SWAP1 SWAP3 OR SWAP3 SWAP1 SWAP3 AND OR SWAP1 SSTORE POP POP PUSH1 0x0 DUP1 SLOAD PUSH1 0x1 DUP2 ADD DUP3 SSTORE SWAP1 DUP1 MSTORE PUSH32 0x290DECD9548B62A8D60345A988386FC84BA6BC95484008F6362F93160EF3E563 ADD DUP1 SLOAD PUSH1 0x1 PUSH1 0x1 PUSH1 0xA0 SHL SUB NOT AND CALLER OR SWAP1 SSTORE POP JUMP JUMPDEST PUSH1 0x2 DUP2 DUP2 SLOAD DUP2 LT PUSH2 0x456 JUMPI PUSH1 0x0 DUP1 REVERT JUMPDEST CALLER PUSH1 0x0 SWAP1 DUP2 MSTORE PUSH1 0x8 PUSH1 0x20 MSTORE PUSH1 0x40 SWAP1 KECCAK256 PUSH1 0x2 ADD SLOAD PUSH1 0xFF AND ISZERO ISZERO PUSH1 0x1 EQ PUSH2 0xDEC JUMPI PUSH1 0x0 DUP1 REVERT JUMPDEST PUSH1 0x1 PUSH1 0x1 PUSH1 0xA0 SHL SUB AND PUSH1 0x0 SWAP1 DUP2 MSTORE PUSH1 0x6 PUSH1 0x20 MSTORE PUSH1 0x40 SWAP1 KECCAK256 PUSH1 0x4 ADD DUP1 SLOAD PUSH3 0xFF0000 NOT AND PUSH3 0x10000 OR SWAP1 SSTORE JUMP JUMPDEST PUSH1 0x0 PUSH1 0x20 DUP3 DUP5 SUB SLT ISZERO PUSH2 0xE29 JUMPI PUSH1 0x0 DUP1 REVERT JUMPDEST POP CALLDATALOAD SWAP2 SWAP1 POP JUMP JUMPDEST DUP1 CALLDATALOAD PUSH1 0x1 PUSH1 0x1 PUSH1 0xA0 SHL SUB DUP2 AND DUP2 EQ PUSH2 0xE47 JUMPI PUSH1 0x0 DUP1 REVERT JUMPDEST SWAP2 SWAP1 POP JUMP JUMPDEST PUSH1 0x0 PUSH1 0x20 DUP3 DUP5 SUB SLT ISZERO PUSH2 0xE5E JUMPI PUSH1 0x0 DUP1 REVERT JUMPDEST PUSH2 0xE67 DUP3 PUSH2 0xE30 JUMP JUMPDEST SWAP4 SWAP3 POP POP POP JUMP JUMPDEST PUSH4 0x4E487B71 PUSH1 0xE0 SHL PUSH1 0x0 MSTORE PUSH1 0x41 PUSH1 0x4 MSTORE PUSH1 0x24 PUSH1 0x0 REVERT JUMPDEST PUSH1 0x0 DUP3 PUSH1 0x1F DUP4 ADD SLT PUSH2 0xE95 JUMPI PUSH1 0x0 DUP1 REVERT JUMPDEST DUP2 CALLDATALOAD PUSH8 0xFFFFFFFFFFFFFFFF DUP1 DUP3 GT ISZERO PUSH2 0xEB0 JUMPI PUSH2 0xEB0 PUSH2 0xE6E JUMP JUMPDEST PUSH1 0x40 MLOAD PUSH1 0x1F DUP4 ADD PUSH1 0x1F NOT SWAP1 DUP2 AND PUSH1 0x3F ADD AND DUP2 ADD SWAP1 DUP3 DUP3 GT DUP2 DUP4 LT OR ISZERO PUSH2 0xED8 JUMPI PUSH2 0xED8 PUSH2 0xE6E JUMP JUMPDEST DUP2 PUSH1 0x40 MSTORE DUP4 DUP2 MSTORE DUP7 PUSH1 0x20 DUP6 DUP9 ADD ADD GT ISZERO PUSH2 0xEF1 JUMPI PUSH1 0x0 DUP1 REVERT JUMPDEST DUP4 PUSH1 0x20 DUP8 ADD PUSH1 0x20 DUP4 ADD CALLDATACOPY PUSH1 0x0 PUSH1 0x20 DUP6 DUP4 ADD ADD MSTORE DUP1 SWAP5 POP POP POP POP POP SWAP3 SWAP2 POP POP JUMP JUMPDEST PUSH1 0x0 PUSH1 0x20 DUP3 DUP5 SUB SLT ISZERO PUSH2 0xF23 JUMPI PUSH1 0x0 DUP1 REVERT JUMPDEST DUP2 CALLDATALOAD PUSH8 0xFFFFFFFFFFFFFFFF DUP2 GT ISZERO PUSH2 0xF3A JUMPI PUSH1 0x0 DUP1 REVERT JUMPDEST PUSH2 0xF46 DUP5 DUP3 DUP6 ADD PUSH2 0xE84 JUMP JUMPDEST SWAP5 SWAP4 POP POP POP POP JUMP JUMPDEST PUSH1 0x0 DUP2 MLOAD DUP1 DUP5 MSTORE PUSH1 0x0 JUMPDEST DUP2 DUP2 LT ISZERO PUSH2 0xF74 JUMPI PUSH1 0x20 DUP2 DUP6 ADD DUP2 ADD MLOAD DUP7 DUP4 ADD DUP3 ADD MSTORE ADD PUSH2 0xF58 JUMP JUMPDEST POP PUSH1 0x0 PUSH1 0x20 DUP3 DUP7 ADD ADD MSTORE PUSH1 0x20 PUSH1 0x1F NOT PUSH1 0x1F DUP4 ADD AND DUP6 ADD ADD SWAP2 POP POP SWAP3 SWAP2 POP POP JUMP JUMPDEST PUSH1 0x0 PUSH1 0x1 PUSH1 0x1 PUSH1 0xA0 SHL SUB DUP1 DUP11 AND DUP4 MSTORE DUP1 DUP10 AND PUSH1 0x20 DUP5 ADD MSTORE POP PUSH1 0xE0 PUSH1 0x40 DUP4 ADD MSTORE PUSH2 0xFC0 PUSH1 0xE0 DUP4 ADD DUP9 PUSH2 0xF4E JUMP JUMPDEST DUP3 DUP2 SUB PUSH1 0x60 DUP5 ADD MSTORE PUSH2 0xFD2 DUP2 DUP9 PUSH2 0xF4E JUMP JUMPDEST SWAP6 ISZERO ISZERO PUSH1 0x80 DUP5 ADD MSTORE POP POP SWAP2 ISZERO ISZERO PUSH1 0xA0 DUP4 ADD MSTORE ISZERO ISZERO PUSH1 0xC0 SWAP1 SWAP2 ADD MSTORE SWAP5 SWAP4 POP POP POP POP JUMP JUMPDEST PUSH1 0x1 PUSH1 0x1 PUSH1 0xA0 SHL SUB DUP5 AND DUP2 MSTORE PUSH1 0x60 PUSH1 0x20 DUP3 ADD MSTORE PUSH1 0x0 PUSH2 0x1016 PUSH1 0x60 DUP4 ADD DUP6 PUSH2 0xF4E JUMP JUMPDEST SWAP1 POP DUP3 ISZERO ISZERO PUSH1 0x40 DUP4 ADD MSTORE SWAP5 SWAP4 POP POP POP POP JUMP JUMPDEST PUSH1 0x0 DUP1 PUSH1 0x0 PUSH1 0x60 DUP5 DUP7 SUB SLT ISZERO PUSH2 0x103D JUMPI PUSH1 0x0 DUP1 REVERT JUMPDEST PUSH2 0x1046 DUP5 PUSH2 0xE30 JUMP JUMPDEST SWAP3 POP PUSH1 0x20 DUP5 ADD CALLDATALOAD PUSH8 0xFFFFFFFFFFFFFFFF DUP1 DUP3 GT ISZERO PUSH2 0x1063 JUMPI PUSH1 0x0 DUP1 REVERT JUMPDEST PUSH2 0x106F DUP8 DUP4 DUP9 ADD PUSH2 0xE84 JUMP JUMPDEST SWAP4 POP PUSH1 0x40 DUP7 ADD CALLDATALOAD SWAP2 POP DUP1 DUP3 GT ISZERO PUSH2 0x1085 JUMPI PUSH1 0x0 DUP1 REVERT JUMPDEST POP PUSH2 0x1092 DUP7 DUP3 DUP8 ADD PUSH2 0xE84 JUMP JUMPDEST SWAP2 POP POP SWAP3 POP SWAP3 POP SWAP3 JUMP JUMPDEST PUSH1 0x1 DUP2 DUP2 SHR SWAP1 DUP3 AND DUP1 PUSH2 0x10B0 JUMPI PUSH1 0x7F DUP3 AND SWAP2 POP JUMPDEST PUSH1 0x20 DUP3 LT DUP2 SUB PUSH2 0x9E8 JUMPI PUSH4 0x4E487B71 PUSH1 0xE0 SHL PUSH1 0x0 MSTORE PUSH1 0x22 PUSH1 0x4 MSTORE PUSH1 0x24 PUSH1 0x0 REVERT JUMPDEST PUSH1 0x1F DUP3 GT ISZERO PUSH2 0x111A JUMPI PUSH1 0x0 DUP2 DUP2 MSTORE PUSH1 0x20 DUP2 KECCAK256 PUSH1 0x1F DUP6 ADD PUSH1 0x5 SHR DUP2 ADD PUSH1 0x20 DUP7 LT ISZERO PUSH2 0x10F7 JUMPI POP DUP1 JUMPDEST PUSH1 0x1F DUP6 ADD PUSH1 0x5 SHR DUP3 ADD SWAP2 POP JUMPDEST DUP2 DUP2 LT ISZERO PUSH2 0x1116 JUMPI DUP3 DUP2 SSTORE PUSH1 0x1 ADD PUSH2 0x1103 JUMP JUMPDEST POP POP POP JUMPDEST POP POP POP JUMP JUMPDEST DUP2 MLOAD PUSH8 0xFFFFFFFFFFFFFFFF DUP2 GT ISZERO PUSH2 0x1139 JUMPI PUSH2 0x1139 PUSH2 0xE6E JUMP JUMPDEST PUSH2 0x114D DUP2 PUSH2 0x1147 DUP5 SLOAD PUSH2 0x109C JUMP JUMPDEST DUP5 PUSH2 0x10D0 JUMP JUMPDEST PUSH1 0x20 DUP1 PUSH1 0x1F DUP4 GT PUSH1 0x1 DUP2 EQ PUSH2 0x1182 JUMPI PUSH1 0x0 DUP5 ISZERO PUSH2 0x116A JUMPI POP DUP6 DUP4 ADD MLOAD JUMPDEST PUSH1 0x0 NOT PUSH1 0x3 DUP7 SWAP1 SHL SHR NOT AND PUSH1 0x1 DUP6 SWAP1 SHL OR DUP6 SSTORE PUSH2 0x1116 JUMP JUMPDEST PUSH1 0x0 DUP6 DUP2 MSTORE PUSH1 0x20 DUP2 KECCAK256 PUSH1 0x1F NOT DUP7 AND SWAP2 JUMPDEST DUP3 DUP2 LT ISZERO PUSH2 0x11B1 JUMPI DUP9 DUP7 ADD MLOAD DUP3 SSTORE SWAP5 DUP5 ADD SWAP5 PUSH1 0x1 SWAP1 SWAP2 ADD SWAP1 DUP5 ADD PUSH2 0x1192 JUMP JUMPDEST POP DUP6 DUP3 LT ISZERO PUSH2 0x11CF JUMPI DUP8 DUP6 ADD MLOAD PUSH1 0x0 NOT PUSH1 0x3 DUP9 SWAP1 SHL PUSH1 0xF8 AND SHR NOT AND DUP2 SSTORE JUMPDEST POP POP POP POP POP PUSH1 0x1 SWAP1 DUP2 SHL ADD SWAP1 SSTORE POP JUMP JUMPDEST PUSH4 0x4E487B71 PUSH1 0xE0 SHL PUSH1 0x0 MSTORE PUSH1 0x32 PUSH1 0x4 MSTORE PUSH1 0x24 PUSH1 0x0 REVERT JUMPDEST PUSH1 0x0 DUP1 DUP4 SLOAD PUSH2 0x1203 DUP2 PUSH2 0x109C JUMP JUMPDEST PUSH1 0x1 DUP3 DUP2 AND DUP1 ISZERO PUSH2 0x121B JUMPI PUSH1 0x1 DUP2 EQ PUSH2 0x1230 JUMPI PUSH2 0x125F JUMP JUMPDEST PUSH1 0xFF NOT DUP5 AND DUP8 MSTORE DUP3 ISZERO ISZERO DUP4 MUL DUP8 ADD SWAP5 POP PUSH2 0x125F JUMP JUMPDEST DUP8 PUSH1 0x0 MSTORE PUSH1 0x20 DUP1 PUSH1 0x0 KECCAK256 PUSH1 0x0 JUMPDEST DUP6 DUP2 LT ISZERO PUSH2 0x1256 JUMPI DUP2 SLOAD DUP11 DUP3 ADD MSTORE SWAP1 DUP5 ADD SWAP1 DUP3 ADD PUSH2 0x123D JUMP JUMPDEST POP POP POP DUP3 DUP8 ADD SWAP5 POP JUMPDEST POP SWAP3 SWAP7 SWAP6 POP POP POP POP POP POP JUMP JUMPDEST PUSH1 0x0 PUSH1 0x1 DUP3 ADD PUSH2 0x128B JUMPI PUSH4 0x4E487B71 PUSH1 0xE0 SHL PUSH1 0x0 MSTORE PUSH1 0x11 PUSH1 0x4 MSTORE PUSH1 0x24 PUSH1 0x0 REVERT JUMPDEST POP PUSH1 0x1 ADD SWAP1 JUMP INVALID LOG2 PUSH5 0x6970667358 0x22 SLT KECCAK256 PUSH4 0x5D36FC5A CALL 0xD5 0x24 0xE3 0xAD 0xDA 0xED CREATE2 INVALID SELFDESTRUCT 0xCC 0xAB 0xD7 GAS COINBASE PUSH8 0x107C943C2985414F 0xE0 0x1F ADD PUSH5 0x736F6C6343 STOP ADDMOD GT STOP CALLER "
    },
    "gasEstimates": {
      "creation": {
        "codeDepositCost": "961600",
        "executionCost": "25236",
        "totalCost": "986836"
      },
      "external": {
        "Donors(address)": "infinite",
        "Recipients(address)": "infinite",
        "Transplants(address)": "6987",
        "addDonar(address)": "26867",
        "addHospital(address)": "26801",
        "addrecipient(address)": "26846",
        "admin()": "2414",
        "creatRequestDonar(address,string,string)": "infinite",
        "creatRequestHospital(string)": "infinite",
        "creatRequestRecipient(address,string,string)": "infinite",
        "donorarr(uint256)": "4650",
        "getDonorcount()": "2359",
        "gethospitalcount()": "2327",
        "getrecipientcount()": "2359",
        "gettransplantlength()": "2359",
        "hospital(address)": "infinite",
        "hospitalarr(uint256)": "4671",
        "recipientarr(uint256)": "4692",
        "transplantarr(uint256)": "4647",
        "transplantmatch(address)": "infinite"
      }
    },
    "methodIdentifiers": {
      "Donors(address)": "6fd094f4",
      "Recipients(address)": "4cfe2ee8",
      "Transplants(address)": "2ac8b49b",
      "addDonar(address)": "e15d046c",
      "addHospital(address)": "1b470bc7",
      "addrecipient(address)": "a5bfe8b6",
      "admin()": "f851a440",
      "creatRequestDonar(address,string,string)": "95cdc823",
      "creatRequestHospital(string)": "3bbe7929",
      "creatRequestRecipient(address,string,string)": "c88c583a",
      "donorarr(uint256)": "0bcfefed",
      "getDonorcount()": "a8072ecb",
      "gethospitalcount()": "1f4ad38b",
      "getrecipientcount()": "67259f7c",
      "gettransplantlength()": "ccc1f580",
      "hospital(address)": "621014fc",
      "hospitalarr(uint256)": "9c067c86",
      "recipientarr(uint256)": "c847a918",
      "transplantarr(uint256)": "cd6cc7d4",
      "transplantmatch(address)": "5ec9693a"
    }
  },
  "storageLayout": {
    "storage": [
      {
        "astId": 50,
        "contract": "OrganManagement.sol:OrganChain",
        "label": "recipientarr",
        "offset": 0,
        "slot": "0",
        "type": "t_array(t_address)dyn_storage"
      },
      {
        "astId": 53,
        "contract": "OrganManagement.sol:OrganChain",
        "label": "donorarr",
        "offset": 0,
        "slot": "1",
        "type": "t_array(t_address)dyn_storage"
      },
      {
        "astId": 56,
        "contract": "OrganManagement.sol:OrganChain",
        "label": "transplantarr",
        "offset": 0,
        "slot": "2",
        "type": "t_array(t_address)dyn_storage"
      },
      {
        "astId": 59,
        "contract": "OrganManagement.sol:OrganChain",
        "label": "hospitalarr",
        "offset": 0,
        "slot": "3",
        "type": "t_array(t_address)dyn_storage"
      },
      {
        "astId": 61,
        "contract": "OrganManagement.sol:OrganChain",
        "label": "admin",
        "offset": 0,
        "slot": "4",
        "type": "t_address"
      },
      {
        "astId": 75,
        "contract": "OrganManagement.sol:OrganChain",
        "label": "Recipients",
        "offset": 0,
        "slot": "5",
        "type": "t_mapping(t_address,t_struct(recipient)16_storage)"
      },
      {
        "astId": 80,
        "contract": "OrganManagement.sol:OrganChain",
        "label": "Donors",
        "offset": 0,
        "slot": "6",
        "type": "t_mapping(t_address,t_struct(donor)31_storage)"
      },
      {
        "astId": 85,
        "contract": "OrganManagement.sol:OrganChain",
        "label": "Transplants",
        "offset": 0,
        "slot": "7",
        "type": "t_mapping(t_address,t_struct(transplant)47_storage)"
      },
      {
        "astId": 90,
        "contract": "OrganManagement.sol:OrganChain",
        "label": "hospital",
        "offset": 0,
        "slot": "8",
        "type": "t_mapping(t_address,t_struct(Hospital)38_storage)"
      }
    ],
    "types": {
      "t_address": {
        "encoding": "inplace",
        "label": "address",
        "numberOfBytes": "20"
      },
      "t_array(t_address)dyn_storage": {
        "base": "t_address",
        "encoding": "dynamic_array",
        "label": "address[]",
        "numberOfBytes": "32"
      },
      "t_bool": {
        "encoding": "inplace",
        "label": "bool",
        "numberOfBytes": "1"
      },
      "t_mapping(t_address,t_struct(Hospital)38_storage)": {
        "encoding": "mapping",
        "key": "t_address",
        "label": "mapping(address => struct OrganChain.Hospital)",
        "numberOfBytes": "32",
        "value": "t_struct(Hospital)38_storage"
      },
      "t_mapping(t_address,t_struct(donor)31_storage)": {
        "encoding": "mapping",
        "key": "t_address",
        "label": "mapping(address => struct OrganChain.donor)",
        "numberOfBytes": "32",
        "value": "t_struct(donor)31_storage"
      },
      "t_mapping(t_address,t_struct(recipient)16_storage)": {
        "encoding": "mapping",
        "key": "t_address",
        "label": "mapping(address => struct OrganChain.recipient)",
        "numberOfBytes": "32",
        "value": "t_struct(recipient)16_storage"
      },
      "t_mapping(t_address,t_struct(transplant)47_storage)": {
        "encoding": "mapping",
        "key": "t_address",
        "label": "mapping(address => struct OrganChain.transplant)",
        "numberOfBytes": "32",
        "value": "t_struct(transplant)47_storage"
      },
      "t_string_storage": {
        "encoding": "bytes",
        "label": "string",
        "numberOfBytes": "32"
      },
      "t_struct(Hospital)38_storage": {
        "encoding": "inplace",
        "label": "struct OrganChain.Hospital",
        "members": [
          {
            "astId": 33,
            "contract": "OrganManagement.sol:OrganChain",
            "label": "HospitalId",
            "offset": 0,
            "slot": "0",
            "type": "t_address"
          },
          {
            "astId": 35,
            "contract": "OrganManagement.sol:OrganChain",
            "label": "name",
            "offset": 0,
            "slot": "1",
            "type": "t_string_storage"
          },
          {
            "astId": 37,
            "contract": "OrganManagement.sol:OrganChain",
            "label": "added",
            "offset": 0,
            "slot": "2",
            "type": "t_bool"
          }
        ],
        "numberOfBytes": "96"
      },
      "t_struct(donor)31_storage": {
        "encoding": "inplace",
        "label": "struct OrganChain.donor",
        "members": [
          {
            "astId": 18,
            "contract": "OrganManagement.sol:OrganChain",
            "label": "donorid",
            "offset": 0,
            "slot": "0",
            "type": "t_address"
          },
          {
            "astId": 20,
            "contract": "OrganManagement.sol:OrganChain",
            "label": "hospitalid",
            "offset": 0,
            "slot": "1",
            "type": "t_address"
          },
          {
            "astId": 22,
            "contract": "OrganManagement.sol:OrganChain",
            "label": "organ",
            "offset": 0,
            "slot": "2",
            "type": "t_string_storage"
          },
          {
            "astId": 24,
            "contract": "OrganManagement.sol:OrganChain",
            "label": "bloodgroup",
            "offset": 0,
            "slot": "3",
            "type": "t_string_storage"
          },
          {
            "astId": 26,
            "contract": "OrganManagement.sol:OrganChain",
            "label": "matchfound",
            "offset": 0,
            "slot": "4",
            "type": "t_bool"
          },
          {
            "astId": 28,
            "contract": "OrganManagement.sol:OrganChain",
            "label": "exist",
            "offset": 1,
            "slot": "4",
            "type": "t_bool"
          },
          {
            "astId": 30,
            "contract": "OrganManagement.sol:OrganChain",
            "label": "added",
            "offset": 2,
            "slot": "4",
            "type": "t_bool"
          }
        ],
        "numberOfBytes": "160"
      },
      "t_struct(recipient)16_storage": {
        "encoding": "inplace",
        "label": "struct OrganChain.recipient",
        "members": [
          {
            "astId": 3,
            "contract": "OrganManagement.sol:OrganChain",
            "label": "patientid",
            "offset": 0,
            "slot": "0",
            "type": "t_address"
          },
          {
            "astId": 5,
            "contract": "OrganManagement.sol:OrganChain",
            "label": "hospitalid",
            "offset": 0,
            "slot": "1",
            "type": "t_address"
          },
          {
            "astId": 7,
            "contract": "OrganManagement.sol:OrganChain",
            "label": "organ",
            "offset": 0,
            "slot": "2",
            "type": "t_string_storage"
          },
          {
            "astId": 9,
            "contract": "OrganManagement.sol:OrganChain",
            "label": "bloodgroup",
            "offset": 0,
            "slot": "3",
            "type": "t_string_storage"
          },
          {
            "astId": 11,
            "contract": "OrganManagement.sol:OrganChain",
            "label": "matchfound",
            "offset": 0,
            "slot": "4",
            "type": "t_bool"
          },
          {
            "astId": 13,
            "contract": "OrganManagement.sol:OrganChain",
            "label": "exist",
            "offset": 1,
            "slot": "4",
            "type": "t_bool"
          },
          {
            "astId": 15,
            "contract": "OrganManagement.sol:OrganChain",
            "label": "added",
            "offset": 2,
            "slot": "4",
            "type": "t_bool"
          }
        ],
        "numberOfBytes": "160"
      },
      "t_struct(transplant)47_storage": {
        "encoding": "inplace",
        "label": "struct OrganChain.transplant",
        "members": [
          {
            "astId": 40,
            "contract": "OrganManagement.sol:OrganChain",
            "label": "recipient",
            "offset": 0,
            "slot": "0",
            "type": "t_address"
          },
          {
            "astId": 42,
            "contract": "OrganManagement.sol:OrganChain",
            "label": "donor",
            "offset": 0,
            "slot": "1",
            "type": "t_address"
          },
          {
            "astId": 44,
            "contract": "OrganManagement.sol:OrganChain",
            "label": "HospitalId",
            "offset": 0,
            "slot": "2",
            "type": "t_address"
          },
          {
            "astId": 46,
            "contract": "OrganManagement.sol:OrganChain",
            "label": "exist",
            "offset": 20,
            "slot": "2",
            "type": "t_bool"
          }
        ],
        "numberOfBytes": "96"
      }
    }
  },
  "userdoc": {
    "kind": "user",
    "methods": {},
    "version": 1
  }
}